:100000000C942A000C9447000C9447000C94470071
:100010000C9447000C9447000C9447000C94470044
:100020000C9447000C9447000C9447000C94470034
:100030000C9447000C9447000C9447000C94470024
:100040000C9447000C9447000C9447000C94470014
:100050000C94470011241FBECFE5D8E0DEBFCDBF12
:1000600011E0A0E6B0E0EAE6FFE102C005900D92E3
:10007000A632B107D9F711E0A6E2B1E001C01D92A6
:10008000AC32B107E1F70E94E10C0C94B30F0C9471
:100090000000EF92FF920F931F937B018C0120E0F1
:1000A00030E040E05FE40E94490388238CF0C801FF
:1000B000B70120E030E040E05FE40E94C1010E940F
:1000C000A9039B01AC01205030404040504806C07D
:1000D000C801B7010E94A9039B01AC01B901CA0183
:1000E0001F910F91FF90EF900895A0E0B0E0EBE733
:1000F000F0E00C94EA0CDC012B01FA019C919230A7
:1001000008F439C1EB018881823008F433C194309E
:1001100069F4843009F02FC111969C91119789815F
:10012000981709F428C1AEE1B1E025C1843009F483
:1001300021C18230A9F4923009F01DC19A01AD01AC
:1001400088E0EA010990AE01E90109929E0181501F
:10015000C1F7E201898111969C918923818308C1AD
:10016000923009F407C112962D903C901397EB0141
:100170008A819B811496AD90BD90CD90DC901797AD
:10018000EC80FD800E811F819101281B390BB90184
:1001900037FF04C066277727621B730B6032710537
:1001A0000CF061C0121613066CF537014801062EDB
:1001B00004C096948794779467940A94D2F721E0C8
:1001C00030E040E050E004C0220F331F441F551FB1
:1001D0006A95D2F721503040404050402E213F21B7
:1001E00040235123211531054105510521F021E01E
:1001F00030E040E050E079018A01E628F72808293C
:1002000019293CC0232BD1F1260E371E350146019A
:10021000062E04C096948794779467940A94D2F734
:1002200021E030E040E050E004C0220F331F441FC3
:10023000551F6A95D2F721503040404050402A2146
:100240003B214C215D21211531054105510521F04E
:1002500021E030E040E050E059016A01A628B728CB
:10026000C828D9280BC0821593052CF01C01AA249C
:10027000BB24650103C0EE24FF24870111969C91E5
:10028000D20111968C91981709F445C0992339F041
:10029000A80197012A193B094C095D0906C0A6016E
:1002A00095012E193F09400B510B57FD08C01182D3
:1002B0003382228224833583468357831DC081E0A5
:1002C00081833382228288279927DC01821B930B4A
:1002D000A40BB50B84839583A683B7830DC0220F2F
:1002E000331F441F551F24833583468357838281E0
:1002F000938101979383828324813581468157813D
:10030000DA01C9010197A109B1098F5F9F4FAF4F72
:10031000BF4328F30BC0918333822282EA0CFB1C7B
:100320000C1D1D1DE482F5820683178383E0808304
:10033000248135814681578157FF1AC0C901AA27F8
:1003400097FDA095BA2F81709070A070B0705695EF
:10035000479537952795822B932BA42BB52B848318
:100360009583A683B7838281938101969383828349
:10037000DF0101C0D201CD01CDB7DEB7E2E10C94BF
:10038000060DA0E2B0E0E7ECF1E00C94F60C698316
:100390007A838B839C832D833E834F835887E9E048
:1003A000EE2EF12CEC0EFD1ECE010196B7010E943F
:1003B000D2048E010F5E1F4FCE010596B8010E9438
:1003C000D2048A8991E089278A8BC701B801AE01DE
:1003D000475E5F4F0E9475000E94FD03A096E6E015
:1003E0000C94120DA0E2B0E0E8EFF1E00C94F60CF2
:1003F00069837A838B839C832D833E834F835887C5
:10040000F9E0EF2EF12CEC0EFD1ECE010196B701A6
:100410000E94D2048E010F5E1F4FCE010596B801D7
:100420000E94D204C701B801AE01475E5F4F0E942F
:1004300075000E94FD03A096E6E00C94120DA0E268
:10044000B0E0E5E2F2E00C94EA0C69837A838B83F6
:100450009C832D833E834F835887CE010196BE0136
:10046000675F7F4F0E94D204CE010596BE016F5E8A
:100470007F4F0E94D2049985923088F0898982301A
:10048000C8F0943019F4823051F404C0843029F457
:10049000923081F48EE191E0C6C0923049F420E0C0
:1004A0009A858A89981321E02A87CE010996BBC0D4
:1004B000823049F420E09A858A89981321E02A8BBA
:1004C000CE014196B0C02D843E844F8458886D88FB
:1004D0007E888F88988CEE24FF248701AA24BB2471
:1004E000650140E050E060E070E0E0E0F0E0C10174
:1004F00081709070892BE9F0E60CF71C081D191D1E
:100500009A01AB012A0D3B1D4C1D5D1D80E090E062
:10051000A0E0B0E0E614F7040805190520F481E036
:1005200090E0A0E0B0E0BA01A901480F591F6A1F8E
:100530007B1FAA0CBB1CCC1CDD1C97FE08C081E0F5
:1005400090E0A0E0B0E0A82AB92ACA2ADB2A3196B6
:10055000E032F10549F0660C771C881C991C569412
:10056000479437942794C3CFFA85EA892B893C892D
:100570008B859C85280F391F2E5F3F4F17C0CA01FE
:1005800081709070892B61F016950795F794E79428
:1005900080E090E0A0E0B0E8E82AF92A0A2B1B2BC3
:1005A00076956795579547952F5F3F4F77FDE7CF36
:1005B0000CC0440F551F661F771F17FD4160EE0CDE
:1005C000FF1C001F111F21503040403090E05907A0
:1005D00090E0690790E4790760F32B8F3C8FDB0193
:1005E000CA018F779070A070B07080349105A1051A
:1005F000B10561F447FD0AC0E114F10401051105DC
:1006000029F0405C5F4F6F4F7F4F40781A8EFE1786
:1006100011F081E08A8F4D8F5E8F6F8F78A383E01A
:10062000898FCE0149960E94FD03A096E2E10C94C9
:10063000060DA8E1B0E0EFE1F3E00C94F60C69835D
:100640007A838B839C832D833E834F83588789E0F5
:10065000E82EF12CEC0EFD1ECE010196B7010E9492
:10066000D2048E010F5E1F4FCE010596B8010E9485
:10067000D2048985823040F08989823028F0C70110
:10068000B8010E944A0501C08FEF6896E6E00C941D
:10069000120DA8E1B0E0EFE4F3E00C94F60C6983EE
:1006A0007A838B839C832D833E834F83588789E095
:1006B000E82EF12CEC0EFD1ECE010196B7010E9432
:1006C000D2048E010F5E1F4FCE010596B8010E9425
:1006D000D2048985823040F08989823028F0C701B0
:1006E000B8010E944A0501C08FEF6896E6E00C94BD
:1006F000120DA8E1B0E0EFE7F3E00C94F60C69838B
:100700007A838B839C832D833E834F83588789E034
:10071000E82EF12CEC0EFD1ECE010196B7010E94D1
:10072000D2048E010F5E1F4FCE010596B8010E94C4
:10073000D2048985823040F08989823028F0C7014F
:10074000B8010E944A0501C081E06896E6E00C9479
:10075000120DACE0B0E0EFEAF3E00C94FA0C698320
:100760007A838B839C83CE010196BE016B5F7F4FA2
:100770000E94D2048D81823061F1823050F1843048
:1007800021F48E81882351F12EC02F81388537FDC9
:1007900020C06E812F3131051CF06623F9F023C093
:1007A0008EE190E0821B930B29853A854B855C8511
:1007B00004C056954795379527958A95D2F76623B5
:1007C000B1F050954095309521953F4F4F4F5F4F79
:1007D0000EC020E030E040E050E009C02FEF3FEFD6
:1007E0004FEF5FE704C020E030E040E050E8B9019F
:1007F000CA012C96E2E00C94160DDF92EF92FF9264
:100800000F931F93FC01E480F58006811781D1804E
:100810008081823048F480E090E0A0E1B0E0E82AF6
:10082000F92A0A2B1B2BA5C0843009F49FC0823003
:1008300021F4EE24FF24870105C0E114F104010531
:10084000110519F4E0E0F0E096C0628173819FEF3A
:10085000623879070CF05BC022E83FEF261B370BAC
:100860002A3131052CF020E030E040E050E02AC091
:10087000B801A701022E04C0769567955795479554
:100880000A94D2F781E090E0A0E0B0E004C0880FC5
:10089000991FAA1FBB1F2A95D2F70197A109B10979
:1008A0008E219F21A023B1230097A105B10521F03E
:1008B00081E090E0A0E0B0E09A01AB01282B392B59
:1008C0004A2B5B2BDA01C9018F779070A070B07052
:1008D00080349105A105B10539F427FF09C0205CDA
:1008E0003F4F4F4F5F4F04C0215C3F4F4F4F5F4F13
:1008F000E0E0F0E02030A0E03A07A0E04A07A0E402
:100900005A0710F0E1E0F0E079018A0127C0603871
:10091000710564F5FB01E158FF4FD801C7018F77DE
:100920009070A070B07080349105A105B10539F4C4
:10093000E7FE0DC080E490E0A0E0B0E004C08FE3EB
:1009400090E0A0E0B0E0E80EF91E0A1F1B1F17FFA1
:1009500005C016950795F794E794319687E01695AC
:100960000795F794E7948A95D1F705C0EE24FF2404
:100970008701EFEFF0E06E2F679566276795902F60
:100980009F77D794DD24D7948E2F8695492F462BB9
:10099000582F5D29B701CA011F910F91FF90EF9069
:1009A000DF900895FC01DB01408151812281622F9B
:1009B0006F7770E0221F2227221F9381892F880FD3
:1009C000822B282F30E0991F9927991F11969C930D
:1009D000119721153105A9F54115510561057105DD
:1009E00011F482E037C082E89FEF13969C938E93B8
:1009F00012979A01AB0167E0220F331F441F551F66
:100A00006A95D1F783E08C930DC0220F331F441FEA
:100A1000551F12968D919C911397019713969C9355
:100A20008E931297203080E0380780E0480780E4FA
:100A3000580758F314962D933D934D935C93179755
:100A400008952F3F310579F4411551056105710570
:100A500019F484E08C93089564FF03C081E08C93C3
:100A600012C01C9210C02F57304013963C932E9307
:100A7000129783E08C9387E0440F551F661F771F02
:100A80008A95D1F7706414964D935D936D937C9322
:100A9000179708951F93DC01FB019C91923008F495
:100AA00047C08081823008F443C0943051F41196DD
:100AB0001C91843099F58181682F70E0611B710968
:100AC0003FC0843021F0923031F48230B9F181811D
:100AD000882389F12DC011961C9111978230F1F075
:100AE00081811817D9F412962D913C911397828128
:100AF00093818217930794F028173907BCF0149656
:100B00008D919D910D90BC91A02D248135814681C0
:100B10005781281739074A075B0718F4112341F05A
:100B20000AC082179307A407B50740F4112319F0F0
:100B300061E070E005C06FEF7FEF02C060E070E041
:100B4000CB011F910895DF93CF9300D000D0CDB794
:100B5000DEB789836A8389818823B1F089818130F6
:100B600099F08981823081F08981833069F000D0E9
:100B7000EDB7FEB7319680E690E0918380830E94C6
:100B8000210D0F900F90DDC08981282F30E03C832C
:100B90002B838B819C818130910509F446C02B8188
:100BA0003C81223031052CF48B819C81009771F0BF
:100BB000C8C02B813C812230310509F465C08B818E
:100BC0009C818330910509F48EC0BBC0EBE3F0E05B
:100BD0008A8180838A81282F30E000D000D0EDB751
:100BE000FEB731968AE690E0918380833383228337
:100BF0000E94210D0F900F900F900F90EBE3F0E00B
:100C00008081282F30E000D000D0EDB7FEB73196BC
:100C100089E790E091838083338322830E94210DB2
:100C20000F900F900F900F908CC0E8E3F0E08A8156
:100C300080838A81282F30E000D000D0EDB7FEB746
:100C400031968CE990E091838083338322830E94E4
:100C5000210D0F900F900F900F90EBE3F0E080814B
:100C6000282F30E000D000D0EDB7FEB7319689E7ED
:100C700090E091838083338322830E94210D0F9023
:100C80000F900F900F905DC0E5E3F0E08A818083C4
:100C90008A81282F30E000D000D0EDB7FEB7319622
:100CA0008BEA90E091838083338322830E94210D1D
:100CB0000F900F900F900F90E5E3F0E08081282FC8
:100CC00030E000D000D0EDB7FEB7319689E790E074
:100CD00091838083338322830E94210D0F900F9094
:100CE0000F900F902EC0E2E3F0E08A8180838A812A
:100CF000282F30E000D000D0EDB7FEB731968AEB58
:100D000090E091838083338322830E94210D0F9092
:100D10000F900F900F90EBE3F0E08081282F30E0F0
:100D200000D000D0EDB7FEB7319689E790E091830F
:100D30008083338322830E94210D0F900F900F90A8
:100D40000F900F900F900F900F90CF91DF9108951B
:100D5000DF93CF93CDB7DEB727970FB6F894DEBFFA
:100D60000FBECDBF89836A834B8389818823B1F00D
:100D70008981813099F08981823081F08981833045
:100D800069F000D0EDB7FEB7319680E690E0918330
:100D900080830E94210D0F900F9052C18B81813072
:100DA00009F092C08981282F30E03F832E836E8125
:100DB0007F816130710569F18E819F81823091055B
:100DC00034F42E813F812115310569F064C06E81B4
:100DD0007F816230710599F18E819F818330910509
:100DE00009F443C058C0ABE3B0E0EBE3F0E080812E
:100DF000482F8B81282F30E08A81882F90E0B9011D
:100E000002C0660F771F8A95E2F7CB01842B8C9383
:100E100017C1A8E3B0E0E8E3F0E08081482F8B81C0
:100E2000282F30E08A81882F90E0B90102C0660F38
:100E3000771F8A95E2F7CB01842B8C9301C1A5E340
:100E4000B0E0E5E3F0E08081482F8B81282F30E08F
:100E50008A81882F90E0B90102C0660F771F8A95BA
:100E6000E2F7CB01842B8C93EBC0A2E3B0E0E2E38A
:100E7000F0E08081482F8B81282F30E08A81882FF5
:100E800090E0B90102C0660F771F8A95E2F7CB01A7
:100E9000842B8C93D5C0ABE3B0E0EBE3F0E0808132
:100EA0008C93ABE3B0E0EBE3F0E080818C93ABE3B9
:100EB000B0E0EBE3F0E080818C93A2E3B0E0E2E30A
:100EC000F0E080818C93BCC08B81882309F0A4C0A2
:100ED0008981282F30E03D832C836C817D816130B6
:100EE000710509F441C08C819D818230910534F4F3
:100EF0002C813D812115310571F075C06C817D819A
:100F00006230710509F445C08C819D818330910563
:100F100009F454C068C08B81282F30E000D000D085
:100F2000EDB7FEB7319688EC90E0918380833383F0
:100F300022830E94210D0F900F900F900F90ABE332
:100F4000B0E0EBE3F0E08081482F8A81282F30E089
:100F500081E090E0022E02C0880F991F0A94E2F708
:100F6000809584238C936CC0A8E3B0E0E8E3F0E0C4
:100F70008081482F8A81282F30E081E090E0022E86
:100F800002C0880F991F0A94E2F7809584238C93FE
:100F900057C0A5E3B0E0E5E3F0E08081482F8A8107
:100FA000282F30E081E090E0022E02C0880F991FC8
:100FB0000A94E2F7809584238C9342C0A2E3B0E0C8
:100FC000E2E3F0E08081482F8A81282F30E081E041
:100FD00090E0022E02C0880F991F0A94E2F78095D4
:100FE00084238C932DC0ABE3B0E0EBE3F0E0808191
:100FF0008C93ABE3B0E0EBE3F0E080818C93ABE368
:10100000B0E0EBE3F0E080818C93A2E3B0E0E2E3B8
:10101000F0E080818C9314C08B81282F30E000D0C9
:1010200000D0EDB7FEB731968BEC90E091838083D2
:10103000338322830E94210D0F900F900F900F9009
:1010400027960FB6F894DEBF0FBECDBFCF91DF91CC
:101050000895DF93CF9300D000D0CDB7DEB789835A
:101060006A8389818823B1F08981813099F08981EF
:10107000823081F08981833069F000D0EDB7FEB70E
:10108000319680E690E0918380830E94210D0F903D
:101090000F90F6C08981282F30E03C832B838B8111
:1010A0009C818130910509F446C02B813C8122301E
:1010B00031052CF48B819C81009771F0C9C02B8184
:1010C0003C812230310509F465C08B819C818330DD
:1010D000910509F48EC0BCC0EAE3F0E08A81808308
:1010E0008A81282F30E000D000D0EDB7FEB73196CE
:1010F00089EE90E091838083338322830E94210DC7
:101100000F900F900F900F90EAE3F0E08081282F6E
:1011100030E000D000D0EDB7FEB7319689E790E01F
:1011200091838083338322830E94210D0F900F903F
:101130000F900F90A5C0E7E3F0E08A8180838A8159
:10114000282F30E000D000D0EDB7FEB7319682E016
:1011500091E091838083338322830E94210D0F903D
:101160000F900F900F90E7E3F0E08081282F30E0A0
:1011700000D000D0EDB7FEB7319689E790E09183BB
:101180008083338322830E94210D0F900F900F9054
:101190000F9076C0E4E3F0E08A8180838A81282F73
:1011A00030E000D000D0EDB7FEB7319680E191E09D
:1011B00091838083338322830E94210D0F900F90AF
:1011C0000F900F90E4E3F0E08081282F30E000D012
:1011D00000D0EDB7FEB7319689E790E09183808328
:1011E000338322830E94210D0F900F900F900F9058
:1011F00047C0E1E3F0E08A8180838A81282F30E0D4
:1012000000D000D0EDB7FEB731968AEB90E0918325
:101210008083338322830E94210D0F900F900F90C3
:101220000F90E1E3F0E08081282F30E000D000D083
:10123000EDB7FEB7319689E790E0918380833383E1
:1012400022830E94210D0F900F900F900F9018C0D5
:10125000AAE3B0E0EAE3F0E080818C93A7E3B0E09A
:10126000E7E3F0E080818C93A4E3B0E0E4E3F0E016
:1012700080818C93A1E3B0E0E1E3F0E080818C9386
:101280000F900F900F900F90CF91DF910895DF9303
:10129000CF93CDB7DEB727970FB6F894DEBF0FBE5A
:1012A000CDBF89836A834B8389818823B1F089818B
:1012B000813099F08981823081F08981833069F0B1
:1012C00000D0EDB7FEB7319680E690E09183808341
:1012D0000E94210D0F900F9044C18B81813009F045
:1012E00092C08981282F30E03F832E836E817F81D9
:1012F0006130710569F18E819F818230910534F4EE
:101300002E813F812115310569F064C06E817F8196
:101310006230710599F18E819F818330910509F4C6
:1013200043C058C0AAE3B0E0EAE3F0E08081482F70
:101330008B81282F30E08A81882F90E0B90102C08C
:10134000660F771F8A95E2F7CB01842B8C9309C136
:10135000A7E3B0E0E7E3F0E08081482F8B81282FFE
:1013600030E08A81882F90E0B90102C0660F771FB4
:101370008A95E2F7CB01842B8C93F3C0A4E3B0E011
:10138000E4E3F0E08081482F8B81282F30E08A81D0
:10139000882F90E0B90102C0660F771F8A95E2F7A7
:1013A000CB01842B8C93DDC0A1E3B0E0E1E3F0E05E
:1013B0008081482F8B81282F30E08A81882F90E010
:1013C000B90102C0660F771F8A95E2F7CB01842B23
:1013D0008C93C7C0AAE3B0E0EAE3F0E080818C938D
:1013E000A7E3B0E0E7E3F0E080818C93A4E3B0E012
:1013F000E4E3F0E080818C93A1E3B0E0E1E3F0E08E
:1014000080818C93AEC08B81882309F096C089813E
:10141000282F30E03D832C836C817D816130710504
:1014200071F18C819D818230910534F42C813D8154
:101430002115310569F068C06C817D8162307105CC
:10144000A9F18C819D818330910509F446C05CC06F
:10145000AAE3B0E0EAE3F0E08081482F8B81282FF7
:1014600030E08A81882F90E0B90102C0660F771FB3
:101470008A95E2F7CB01809584238C9372C0A7E311
:10148000B0E0E7E3F0E08081482F8B81282F30E047
:101490008A81882F90E0B90102C0660F771F8A9574
:1014A000E2F7CB01809584238C935BC0A4E3B0E08A
:1014B000E4E3F0E08081482F8B81282F30E08A819F
:1014C000882F90E0B90102C0660F771F8A95E2F776
:1014D000CB01809584238C9344C0A1E3B0E0E1E389
:1014E000F0E08081482F8B81282F30E08A81882F7F
:1014F00090E0B90102C0660F771F8A95E2F7CB0131
:10150000809584238C932DC0AAE3B0E0EAE3F0E059
:1015100080818C93A7E3B0E0E7E3F0E080818C93D7
:10152000A4E3B0E0E4E3F0E080818C93A1E3B0E0D9
:10153000E1E3F0E080818C9314C08B81282F30E0B0
:1015400000D000D0EDB7FEB731968BEC90E09183E0
:101550008083338322830E94210D0F900F900F9080
:101560000F9027960FB6F894DEBF0FBECDBFCF9178
:10157000DF910895DF93CF9300D000D0CDB7DEB7D1
:101580008A8319828A818823B1F08A81813099F017
:101590008A81823081F08A81833069F000D0EDB792
:1015A000FEB7319680E690E0918380830E94210D02
:1015B0000F900F9032C08A81282F30E03C832B831C
:1015C0008B819C8181309105D1F02B813C8122302F
:1015D00031052CF48B819C81009761F01EC02B811A
:1015E0003C812230310581F08B819C8183309105D3
:1015F00081F013C0E9E3F0E0808189830EC0E6E367
:10160000F0E08081898309C0E3E3F0E08081898391
:1016100004C0E0E3F0E08081898389810F900F901E
:101620000F900F90CF91DF910895DF93CF9300D06B
:1016300000D00F92CDB7DEB78A836B8319828A817F
:101640008823B1F08A81813099F08A81823081F0DB
:101650008A81833069F000D0EDB7FEB7319680E61D
:1016600090E0918380830E94210D0F900F9067C0BE
:101670008A81282F30E03D832C834C815D8141306D
:10168000510541F18C819D818230910534F42C818A
:101690003D812115310561F052C04C815D814230A0
:1016A000510551F18C819D8183309105B9F147C07D
:1016B000E9E3F0E08081282F30E08B81882F90E0F3
:1016C000A90102C0559547958A95E2F7CA01817034
:1016D000898335C0E6E3F0E08081282F30E08B81FC
:1016E000882F90E0A90102C0559547958A95E2F7A9
:1016F000CA018170898323C0E3E3F0E08081282F51
:1017000030E08B81882F90E0A90102C05595479564
:101710008A95E2F7CA018170898311C0E0E3F0E0A5
:101720008081282F30E08B81882F90E0A90102C0B2
:10173000559547958A95E2F7CA0181708983898119
:101740000F900F900F900F900F90CF91DF91089511
:10175000DF93CF9300D00F92CDB7DEB78A836B8330
:1017600019828A816B8141E00E9447098A816B81DD
:1017700041E00E94A80681E0898389810F900F9043
:101780000F90CF91DF910895DF93CF9300D00F9208
:10179000CDB7DEB78A836B8381E089838A816B81D1
:1017A00041E00E9447098A816B8140E00E94A806BF
:1017B000198289810F900F900F90CF91DF9108953A
:1017C000DF93CF93CDB7DEB76E970FB6F894DEBF39
:1017D0000FBECDBF8D8F6E8F8D8D6E8D0E94A80B2D
:1017E00080E090E0AAE7B4E4898F9A8FAB8FBC8F3A
:1017F000698D7A8D8B8D9C8D20E030E04AEF54E42A
:101800000E941F02DC01CB018D8B9E8BAF8BB88FAA
:101810006D897E898F89988D20E030E040E85FE314
:101820000E94790388232CF481E090E09C8B8B8BC1
:101830003FC06D897E898F89988D20E03FEF4FE70B
:1018400057E40E94190318164CF5698D7A8D8B8D1B
:101850009C8D20E030E040E251E40E941F02DC0158
:10186000CB01BC01CD010E944900DC01CB019C8B66
:101870008B8B0FC088EC90E09A8B898B89899A8931
:101880000197F1F79A8B898B8B899C8901979C8BA7
:101890008B8B8B899C89009769F714C06D897E8931
:1018A0008F89988D0E944900DC01CB019C8B8B8B2A
:1018B0008B899C89988B8F878F8598890197F1F701
:1018C000988B8F878D8D6E8D0E94C40B80E090E089
:1018D000AAE7B4E48B879C87AD87BE876B857C8540
:1018E0008D859E8520E030E04AEF54E40E941F027F
:1018F000DC01CB018F839887A987BA876F817885B0
:1019000089859A8520E030E040E85FE30E94790312
:1019100088232CF481E090E09E838D833FC06F810B
:10192000788589859A8520E03FEF4FE757E40E944C
:10193000190318164CF56B857C858D859E8520E0F6
:1019400030E040E251E40E941F02DC01CB01BC0107
:10195000CD010E944900DC01CB019E838D830FC025
:1019600088EC90E09C838B838B819C810197F1F7BD
:101970009C838B838D819E8101979E838D838D8136
:101980009E81009769F714C06F81788589859A8553
:101990000E944900DC01CB019E838D838D819E8155
:1019A0009A83898389819A810197F1F79A83898340
:1019B0006E960FB6F894DEBF0FBECDBFCF91DF910C
:1019C0000895DF93CF93CDB7DEB780E060E00E944B
:1019D000A80BFBCF2F923F924F925F926F927F9214
:1019E0008F929F92AF92BF92CF92DF92EF92FF922F
:1019F0000F931F93CF93DF93CDB7DEB7CA1BDB0BDB
:101A00000FB6F894DEBF0FBECDBF09942A8839887F
:101A100048885F846E847D848C849B84AA84B98486
:101A2000C884DF80EE80FD800C811B81AA81B98192
:101A3000CE0FD11D0FB6F894DEBF0FBECDBFED01A6
:101A40000895A0E0B0E0E7E2FDE00C94FA0CFE019E
:101A50003596619171918091280190912901AF0192
:101A60000E94360D2096E2E00C94160DABE0B0E03B
:101A7000ECE3FDE00C94EA0C3C012B015A01FC0163
:101A800017821682838181FD03C06FEF7FEFC6C18D
:101A90009AE0892E1E010894211C311CF301238138
:101AA000F20123FD859123FF81912F01882309F401
:101AB000B2C1853239F423FD859123FF81912F0135
:101AC000853229F490E0B3010E94290FE7CF982FC7
:101AD000FF24EE249924FFE1FF15D0F09B3269F03A
:101AE0009C3228F4903259F0933291F40EC09D321A
:101AF00049F0903369F441E024C052E0F52A84E0D3
:101B0000F82A28C098E0F92A25C0E0E1FE2A22C080
:101B1000F7FC29C0892F80538A3070F4F6FE05C087
:101B2000989C902C1124980E15C0E89CE02C112450
:101B3000E80EF0E2FF2A0EC09E3229F4F6FC6BC1DB
:101B400040E4F42A07C09C3619F450E8F52A02C094
:101B5000983649F4F20123FD959123FF91912F01CD
:101B6000992309F0B8CF892F8554833018F080521B
:101B7000833038F444E050E0A40EB51E5FE359838F
:101B80000FC0933631F0933779F0933509F056C092
:101B900020C0F5018081898342E050E0A40EB51E8B
:101BA000610101E010E012C0F501C080D180F6FCB7
:101BB00003C06FEF7FEF02C0692D70E042E050E09C
:101BC000A40EB51EC6010E941E0F8C015FE7F52210
:101BD00014C0F501C080D180F6FC03C06FEF7FEF29
:101BE00002C0692D70E042E050E0A40EB51EC601AF
:101BF0000E94130F8C0150E8F52AF3FE07C01AC0AB
:101C000080E290E0B3010E94290FEA948E2D90E0CB
:101C100008171907A8F30EC0F601F7FC8591F7FE27
:101C200081916F0190E0B3010E94290FE110EA94C5
:101C3000015010400115110579F7EAC0943611F0F2
:101C4000993669F5F7FE08C0F5012081318142819E
:101C5000538184E090E00AC0F501808191819C016C
:101C6000442737FD4095542F82E090E0A80EB91E1E
:101C70009FE6F92257FF09C0509540953095219570
:101C80003F4F4F4F5F4FE0E8FE2ACA01B901A10163
:101C90002AE030E00E94550FD82ED21840C0953768
:101CA00029F41F2D1F7E2AE030E01DC01F2D197F53
:101CB0009F3661F0903720F4983509F0ACC00FC022
:101CC000903739F0983709F0A6C004C028E030E01A
:101CD0000AC0106114FD146020E130E004C014FD5E
:101CE000166020E132E017FF08C0F50160817181C4
:101CF0008281938144E050E008C0F50180819181A8
:101D0000BC0180E090E042E050E0A40EB51EA101CD
:101D10000E94550FD82ED2188FE7F82EF122F6FE2A
:101D20000BC05EEFF522D91438F4F4FE07C0F2FCC4
:101D300005C08FEEF82202C01D2D01C0192DF4FE42
:101D40000DC0FE01ED0DF11D8081803319F499EE77
:101D5000F92208C01F5FF2FE05C003C08F2D8678F0
:101D600009F01F5F0F2DF3FC14C0F0FE0FC01E150D
:101D700010F09D2C0BC09D2C9E0C911A1E2D06C0A0
:101D800080E290E0B3010E94290F1F5F1E15C0F38F
:101D900004C01E1510F4E11A01C0EE2404FF0FC0A8
:101DA00080E390E0B3010E94290F02FF1DC001FDF6
:101DB00003C088E790E00EC088E590E00BC0802F5C
:101DC000867891F001FF02C08BE201C080E2F7FC4F
:101DD0008DE290E0B3010E94290F06C080E390E0FD
:101DE000B3010E94290F9A94D914C0F3DA94F10137
:101DF000ED0DF11D808190E0B3010E94290FDD20DF
:101E0000A9F706C080E290E0B3010E94290FEA948E
:101E1000EE20C1F743CEF30166817781CB012B968B
:101E2000E2E10C94060DFC01059061507040011038
:101E3000D8F7809590958E0F9F1F0895FC016150F3
:101E4000704001900110D8F7809590958E0F9F1FDC
:101E500008950F931F93CF93DF938C01EB018B8138
:101E600081FF1BC082FF0DC02E813F818C819D812F
:101E70002817390764F4E881F9810193F983E8832D
:101E800006C0E885F985802F0995892B31F48E816C
:101E90009F8101969F838E8302C00FEF1FEFC801C1
:101EA000DF91CF911F910F910895FA01AA27283051
:101EB00051F1203181F1E8946F936E7F6E5F7F4F17
:101EC0008F4F9F4FAF4FB1E03ED0B4E03CD0670F93
:101ED000781F891F9A1FA11D680F791F8A1F911DE6
:101EE000A11D6A0F711D811D911DA11D20D009F436
:101EF00068943F912AE0269F11243019305D319378
:101F0000DEF6CF010895462F4770405D4193B3E060
:101F10000FD0C9F7F6CF462F4F70405D4A3318F007
:101F2000495D31FD4052419302D0A9F7EACFB4E0B8
:101F3000A6959795879577956795BA95C9F7009770
:101F40006105710508959B01AC010A2E0694579511
:101F5000479537952795BA95C9F7620F731F841F68
:0A1F6000951FA01D0895F894FFCF0F
:101F6A0057524F4E4720494421003078257820693E
:101F7A006E20506F727441730056616C75652061F2
:101F8A00737369676E656420746F20504F525441B1
:101F9A005F5074723A20307825780A0030782578B4
:101FAA0020696E20506F7274427300307825782051
:101FBA00696E20506F7274437300307825782069F7
:101FCA006E20506F7274440025690063616E206E42
:101FDA006F742061737369676E2030257820746F7F
:101FEA00207468652070696E00446972656374695B
:101FFA006F6E203078257820696E20506F72744198
:10200A0073003078257820696E20506F7274420010
:10201A003078257820696E20506F72744300000072
:06202A00000000000000B0
:00000001FF
