:100000000C942A000C9447000C9447000C94470071
:100010000C9447000C9447000C9447000C94470044
:100020000C9447000C9447000C9447000C94470034
:100030000C9447000C9447000C9447000C94470024
:100040000C9447000C9447000C9447000C94470014
:100050000C94470011241FBECFE5D8E0DEBFCDBF12
:1000600010E0A0E6B0E0E6E4FEE202C005900D92EA
:10007000A83DB107D9F710E0A8EDB0E001C01D928E
:10008000AC3DB107E1F70E9498160C9421170C942F
:100090000000EF92FF920F931F937B018C0120E0F1
:1000A00030E040E05FE40E94F50388238CF0C80153
:1000B000B70120E030E040E05FE40E94C1010E940F
:1000C00055049B01AC01205030404040504806C0D0
:1000D000C801B7010E9455049B01AC01B901CA01D6
:1000E0001F910F91FF90EF900895A0E0B0E0EBE733
:1000F000F0E00C94EA16DC012B01FA019C9192309D
:1001000008F439C1EB018881823008F433C194309E
:1001100069F4843009F02FC111969C91119789815F
:10012000981709F428C1A6E6B0E025C1843009F487
:1001300021C18230A9F4923009F01DC19A01AD01AC
:1001400088E0EA010990AE01E90109929E0181501F
:10015000C1F7E201898111969C918923818308C1AD
:10016000923009F407C112962D903C901397EB0141
:100170008A819B811496AD90BD90CD90DC901797AD
:10018000EC80FD800E811F819101281B390BB90184
:1001900037FF04C066277727621B730B6032710537
:1001A0000CF061C0121613066CF537014801062EDB
:1001B00004C096948794779467940A94D2F721E0C8
:1001C00030E040E050E004C0220F331F441F551FB1
:1001D0006A95D2F721503040404050402E213F21B7
:1001E00040235123211531054105510521F021E01E
:1001F00030E040E050E079018A01E628F72808293C
:1002000019293CC0232BD1F1260E371E350146019A
:10021000062E04C096948794779467940A94D2F734
:1002200021E030E040E050E004C0220F331F441FC3
:10023000551F6A95D2F721503040404050402A2146
:100240003B214C215D21211531054105510521F04E
:1002500021E030E040E050E059016A01A628B728CB
:10026000C828D9280BC0821593052CF01C01AA249C
:10027000BB24650103C0EE24FF24870111969C91E5
:10028000D20111968C91981709F445C0992339F041
:10029000A80197012A193B094C095D0906C0A6016E
:1002A00095012E193F09400B510B57FD08C01182D3
:1002B0003382228224833583468357831DC081E0A5
:1002C00081833382228288279927DC01821B930B4A
:1002D000A40BB50B84839583A683B7830DC0220F2F
:1002E000331F441F551F24833583468357838281E0
:1002F000938101979383828324813581468157813D
:10030000DA01C9010197A109B1098F5F9F4FAF4F72
:10031000BF4328F30BC0918333822282EA0CFB1C7B
:100320000C1D1D1DE482F5820683178383E0808304
:10033000248135814681578157FF1AC0C901AA27F8
:1003400097FDA095BA2F81709070A070B0705695EF
:10035000479537952795822B932BA42BB52B848318
:100360009583A683B7838281938101969383828349
:10037000DF0101C0D201CD01CDB7DEB7E2E10C94BF
:100380000617A0E2B0E0E7ECF1E00C94F616698302
:100390007A838B839C832D833E834F835887E9E048
:1003A000EE2EF12CEC0EFD1ECE010196B7010E943F
:1003B0007E058E010F5E1F4FCE010596B8010E948B
:1003C0007E058A8991E089278A8BC701B801AE0131
:1003D000475E5F4F0E9475000E94A904A096E6E068
:1003E0000C941217A0E2B0E0E8EFF1E00C94F616DE
:1003F00069837A838B839C832D833E834F835887C5
:10040000F9E0EF2EF12CEC0EFD1ECE010196B701A6
:100410000E947E058E010F5E1F4FCE010596B8012A
:100420000E947E05C701B801AE01475E5F4F0E9482
:1004300075000E94A904A096E6E00C941217A0E2B1
:10044000B0E0E5E2F2E00C94EA1669837A838B83EC
:100450009C832D833E834F835887CE010196BE0136
:10046000675F7F4F0E947E05CE010596BE016F5EDD
:100470007F4F0E947E059985923088F0898982306D
:10048000C8F0943019F4823051F404C0843029F457
:10049000923081F486E690E0C6C0923049F420E0C4
:1004A0009A858A89981321E02A87CE010996BBC0D4
:1004B000823049F420E09A858A89981321E02A8BBA
:1004C000CE014196B0C02D843E844F8458886D88FB
:1004D0007E888F88988CEE24FF248701AA24BB2471
:1004E000650140E050E060E070E0E0E0F0E0C10174
:1004F00081709070892BE9F0E60CF71C081D191D1E
:100500009A01AB012A0D3B1D4C1D5D1D80E090E062
:10051000A0E0B0E0E614F7040805190520F481E036
:1005200090E0A0E0B0E0BA01A901480F591F6A1F8E
:100530007B1FAA0CBB1CCC1CDD1C97FE08C081E0F5
:1005400090E0A0E0B0E0A82AB92ACA2ADB2A3196B6
:10055000E032F10549F0660C771C881C991C569412
:10056000479437942794C3CFFA85EA892B893C892D
:100570008B859C85280F391F2E5F3F4F17C0CA01FE
:1005800081709070892B61F016950795F794E79428
:1005900080E090E0A0E0B0E8E82AF92A0A2B1B2BC3
:1005A00076956795579547952F5F3F4F77FDE7CF36
:1005B0000CC0440F551F661F771F17FD4160EE0CDE
:1005C000FF1C001F111F21503040403090E05907A0
:1005D00090E0690790E4790760F32B8F3C8FDB0193
:1005E000CA018F779070A070B07080349105A1051A
:1005F000B10561F447FD0AC0E114F10401051105DC
:1006000029F0405C5F4F6F4F7F4F40781A8EFE1786
:1006100011F081E08A8F4D8F5E8F6F8F78A383E01A
:10062000898FCE0149960E94A904A096E2E10C941C
:100630000617A8E1B0E0EFE1F3E00C94F21669834D
:100640007A838B839C832D833E834F835887B9E0C5
:10065000EB2EF12CEC0EFD1ECE010196B7010E948F
:100660007E058E010F5E1F4FCE010596B8010E94D8
:100670007E052985223008F47EC03989323010F495
:10068000B8017CC08A859A8989278A87243011F02D
:10069000223031F4231709F06EC066E670E06EC0B8
:1006A000343039F41D861E861F86188A1C861B86E8
:1006B00004C0323021F484E08987B7015FC02B8504
:1006C0003C858B899C89281B390B3C872B87ED84C3
:1006D000FE840F851889AD88BE88CF88D88CEA142F
:1006E000FB040C051D0540F4EE0CFF1C001F111F40
:1006F000215030403C872B8720E030E040E050E044
:1007000080E090E0A0E0B0E460E070E0EA14FB0478
:100710000C051D0540F0282B392B4A2B5B2BEA18C2
:10072000FB080C091D09B695A79597958795EE0CC2
:10073000FF1C001F111F6F5F7F4F6F31710531F775
:10074000DA01C9018F779070A070B0708034910584
:10075000A105B10561F427FD0AC0E114F10401050A
:10076000110529F0205C3F4F4F4F5F4F20782D87B8
:100770003E874F87588BBE01675F7F4FCB010E943A
:10078000A9046896EAE00C940E17A8E1B0E0EBEC3F
:10079000F3E00C94F61669837A838B839C832D8314
:1007A0003E834F83588789E0E82EF12CEC0EFD1E26
:1007B000CE010196B7010E947E058E010F5E1F4F8C
:1007C000CE010596B8010E947E058985823040F0F1
:1007D0008989823028F0C701B8010E94F60501C05E
:1007E0008FEF6896E6E00C941217A8E1B0E0EBEF0B
:1007F000F3E00C94F61669837A838B839C832D83B4
:100800003E834F83588789E0E82EF12CEC0EFD1EC5
:10081000CE010196B7010E947E058E010F5E1F4F2B
:10082000CE010596B8010E947E058985823040F090
:100830008989823028F0C701B8010E94F60501C0FD
:100840008FEF6896E6E00C941217A8E1B0E0EBE2B7
:10085000F4E00C94F61669837A838B839C832D8352
:100860003E834F83588789E0E82EF12CEC0EFD1E65
:10087000CE010196B7010E947E058E010F5E1F4FCB
:10088000CE010596B8010E947E058985823040F030
:100890008989823028F0C701B8010E94F60501C09D
:1008A00081E06896E6E00C941217ACE0B0E0EBE56E
:1008B000F4E00C94FA1669837A838B839C83CE01CF
:1008C0000196BE016B5F7F4F0E947E058D81823055
:1008D00061F1823050F1843021F48E81882351F10E
:1008E0002EC02F81388537FD20C06E812F31310514
:1008F0001CF06623F9F023C08EE190E0821B930B7D
:1009000029853A854B855C8504C056954795379572
:1009100027958A95D2F76623B1F05095409530958A
:1009200021953F4F4F4F5F4F0EC020E030E040E039
:1009300050E009C02FEF3FEF4FEF5FE704C020E02A
:1009400030E040E050E8B901CA012C96E2E00C9496
:100950001617DF92EF92FF920F931F93FC01E48032
:10096000F58006811781D1808081823048F480E053
:1009700090E0A0E1B0E0E82AF92A0A2B1B2BA5C0E1
:10098000843009F49FC0823021F4EE24FF248701D3
:1009900005C0E114F1040105110519F4E0E0F0E0EF
:1009A00096C0628173819FEF623879070CF05BC05B
:1009B00022E83FEF261B370B2A3131052CF020E0CF
:1009C00030E040E050E02AC0B801A701022E04C088
:1009D00076956795579547950A94D2F781E090E010
:1009E000A0E0B0E004C0880F991FAA1FBB1F2A9582
:1009F000D2F70197A109B1098E219F21A023B1232C
:100A00000097A105B10521F081E090E0A0E0B0E001
:100A10009A01AB01282B392B4A2B5B2BDA01C90138
:100A20008F779070A070B07080349105A105B105EA
:100A300039F427FF09C0205C3F4F4F4F5F4F04C080
:100A4000215C3F4F4F4F5F4FE0E0F0E02030A0E0EF
:100A50003A07A0E04A07A0E45A0710F0E1E0F0E00E
:100A600079018A0127C06038710564F5FB01E158FE
:100A7000FF4FD801C7018F779070A070B07080349D
:100A80009105A105B10539F4E7FE0DC080E490E0C1
:100A9000A0E0B0E004C08FE390E0A0E0B0E0E80E9A
:100AA000F91E0A1F1B1F17FF05C016950795F7941F
:100AB000E794319687E016950795F794E7948A9521
:100AC000D1F705C0EE24FF248701EFEFF0E06E2F91
:100AD000679566276795902F9F77D794DD24D794E5
:100AE0008E2F8695492F462B582F5D29B701CA01B5
:100AF0001F910F91FF90EF90DF900895FC01DB01B3
:100B0000408151812281622F6F7770E0221F22275E
:100B1000221F9381892F880F822B282F30E0991F65
:100B20009927991F11969C93119721153105A9F5C5
:100B3000411551056105710511F482E037C082E865
:100B40009FEF13969C938E9312979A01AB0167E0E7
:100B5000220F331F441F551F6A95D1F783E08C93F2
:100B60000DC0220F331F441F551F12968D919C916B
:100B70001397019713969C938E931297203080E0E1
:100B8000380780E0480780E4580758F314962D93FF
:100B90003D934D935C93179708952F3F310579F45A
:100BA000411551056105710519F484E08C93089590
:100BB00064FF03C081E08C9312C01C9210C02F57B9
:100BC000304013963C932E93129783E08C9387E0EA
:100BD000440F551F661F771F8A95D1F770641496CE
:100BE0004D935D936D937C93179708951F93DC014C
:100BF000FB019C91923008F447C08081823008F458
:100C000043C0943051F411961C91843099F5818140
:100C1000682F70E0611B71093FC0843021F0923071
:100C200031F48230B9F18181882389F12DC0119688
:100C30001C9111978230F1F081811817D9F4129626
:100C40002D913C911397828193818217930794F0A1
:100C500028173907BCF014968D919D910D90BC9189
:100C6000A02D2481358146815781281739074A07ED
:100C70005B0718F4112341F00AC082179307A407F9
:100C8000B50740F4112319F061E070E005C06FEF83
:100C90007FEF02C060E070E0CB011F910895DF9309
:100CA000CF9300D000D00F92CDB7DEB78A836B838D
:100CB00081E089838A81882361F08A81813049F0CB
:100CC0008A81823031F08A81833019F081E0898312
:100CD00033C019828A81282F30E03D832C838C8198
:100CE0009D8181309105D1F02C813D8122303105EB
:100CF0002CF48C819D81009761F01EC02C813D8178
:100D00002230310581F08C819D818330910581F005
:100D100013C0EBE3F0E08B8180830EC0E8E3F0E0EA
:100D20008B81808309C0E5E3F0E08B81808304C080
:100D3000E2E3F0E08B81808389810F900F900F9028
:100D40000F900F90CF91DF910895DF93CF93CDB7A0
:100D5000DEB728970FB6F894DEBF0FBECDBF8A83EB
:100D60006B834C8381E089838A81882361F08A8147
:100D7000813049F08A81823031F08A81833019F0E4
:100D800081E089834CC18B81883018F083E08983AE
:100D900046C182E089838C81813009F0ACC08A81B0
:100DA000282F30E038872F836F8178856130710577
:100DB00099F18F8198858230910534F42F8138859F
:100DC0002115310571F079C06F8178856230710528
:100DD00009F43DC08F8198858330910509F452C094
:100DE0006CC08A816B8141E00E948808ABE3B0E06F
:100DF000EBE3F0E08081482F8C81282F30E08B815D
:100E0000882F90E0B90102C0660F771F8A95E2F73C
:100E1000CB01842B8C9303C18A816B8141E00E94BA
:100E20008808A8E3B0E0E8E3F0E08081482F8C81F7
:100E3000282F30E08B81882F90E0B90102C0660F27
:100E4000771F8A95E2F7CB01842B8C93E8C08A81C7
:100E50006B8141E00E948808A5E3B0E0E5E3F0E0A3
:100E60008081482F8C81282F30E08B81882F90E063
:100E7000B90102C0660F771F8A95E2F7CB01842B78
:100E80008C93CDC08A816B8141E00E948808A2E3E7
:100E9000B0E0E2E3F0E08081482F8C81282F30E041
:100EA0008B81882F90E0B90102C0660F771F8A9569
:100EB000E2F7CB01842B8C93B2C08A816B8141E035
:100EC0000E948808ABE3B0E0EBE3F0E080818C9314
:100ED000ABE3B0E0EBE3F0E080818C93ABE3B0E018
:100EE000EBE3F0E080818C93A2E3B0E0E2E3F0E09A
:100EF00080818C9394C08C81882309F08EC08A8174
:100F0000282F30E03E832D836D817E816130710515
:100F100061F18D819E818230910534F42D813E8175
:100F20002115310569F060C06D817E8162307105E7
:100F300089F18D819E818330910509F440C054C0B0
:100F4000ABE3B0E0EBE3F0E08081482F8B81282F0A
:100F500030E081E090E0022E02C0880F991F0A94D1
:100F6000E2F7809584238C935AC0A8E3B0E0E8E3CD
:100F7000F0E08081482F8B81282F30E081E090E0E5
:100F8000022E02C0880F991F0A94E2F780958423ED
:100F90008C9345C0A5E3B0E0E5E3F0E08081482F05
:100FA0008B81282F30E081E090E0022E02C0880F74
:100FB000991F0A94E2F7809584238C9330C0A2E3B2
:100FC000B0E0E2E3F0E08081482F8B81282F30E011
:100FD00081E090E0022E02C0880F991F0A94E2F788
:100FE000809584238C931BC0ABE3B0E0EBE3F0E08F
:100FF00080818C93ABE3B0E0EBE3F0E080818C93F5
:10100000ABE3B0E0EBE3F0E080818C93A2E3B0E0EF
:10101000E2E3F0E080818C9302C084E089838981DF
:1010200028960FB6F894DEBF0FBECDBFCF91DF91EB
:101030000895DF93CF9300D000D00F92CDB7DEB7E5
:101040008A836B8381E089838A81882361F08A8126
:10105000813049F08A81823031F08A81833019F001
:1010600081E089834CC019828A81282F30E03D833A
:101070002C838C819D8181309105D1F02C813D8123
:10108000223031052CF48C819D81009761F01FC0C6
:101090002C813D812230310581F08C819D8183300E
:1010A000910581F014C0EAE3F0E08B81808327C0D2
:1010B000E7E3F0E08B81808322C0E4E3F0E08B8102
:1010C00080831DC0E1E3F0E08B81808318C0AAE338
:1010D000B0E0EAE3F0E080818C93A7E3B0E0E7E3DF
:1010E000F0E080818C93A4E3B0E0E4E3F0E0808161
:1010F0008C93A1E3B0E0E1E3F0E080818C938981FF
:101100000F900F900F900F900F90CF91DF91089557
:10111000DF93CF93CDB7DEB728970FB6F894DEBF35
:101120000FBECDBF8A836B834C8381E089838A8124
:10113000882361F08A81813049F08A81823031F0E0
:101140008A81833019F081E089833BC119828B81C8
:10115000883018F083E0898334C182E089838C81F0
:10116000813009F092C08A81282F30E038872F83A0
:101170006F8178856130710569F18F819885823042
:10118000910534F42F8138852115310569F064C04B
:101190006F8178856230710599F18F8198858330F0
:1011A000910509F443C058C0AAE3B0E0EAE3F0E0D7
:1011B0008081482F8C81282F30E08B81882F90E010
:1011C000B90102C0660F771F8A95E2F7CB01842B25
:1011D0008C93F7C0A7E3B0E0E7E3F0E08081482F0D
:1011E0008C81282F30E08B81882F90E0B90102C0DC
:1011F000660F771F8A95E2F7CB01842B8C93E1C0B1
:10120000A4E3B0E0E4E3F0E08081482F8C81282F54
:1012100030E08B81882F90E0B90102C0660F771F04
:101220008A95E2F7CB01842B8C93CBC0A1E3B0E08D
:10123000E1E3F0E08081482F8C81282F30E08B8122
:10124000882F90E0B90102C0660F771F8A95E2F7F8
:10125000CB01842B8C93B5C0AAE3B0E0EAE3F0E0C5
:1012600080818C93A7E3B0E0E7E3F0E080818C938A
:10127000A4E3B0E0E4E3F0E080818C93A1E3B0E08C
:10128000E1E3F0E080818C939CC08C81882309F09D
:1012900096C08A81282F30E03E832D836D817E8128
:1012A0006130710571F18D819E818230910534F438
:1012B0002D813E812115310569F068C06D817E81E7
:1012C00062307105A9F18D819E818330910509F409
:1012D00046C05CC0AAE3B0E0EAE3F0E08081482FBA
:1012E0008C81282F30E08B81882F90E0B90102C0DB
:1012F000660F771F8A95E2F7CB01809584238C9344
:1013000060C0A7E3B0E0E7E3F0E08081482F8C8184
:10131000282F30E08B81882F90E0B90102C0660F42
:10132000771F8A95E2F7CB01809584238C9349C07F
:10133000A4E3B0E0E4E3F0E08081482F8C81282F23
:1013400030E08B81882F90E0B90102C0660F771FD3
:101350008A95E2F7CB01809584238C9332C0A1E378
:10136000B0E0E1E3F0E08081482F8C81282F30E06D
:101370008B81882F90E0B90102C0660F771F8A9594
:10138000E2F7CB01809584238C931BC0AAE3B0E0E5
:10139000EAE3F0E080818C93A7E3B0E0E7E3F0E0DC
:1013A00080818C93A4E3B0E0E4E3F0E080818C934F
:1013B000A1E3B0E0E1E3F0E080818C9302C084E03F
:1013C0008983898128960FB6F894DEBF0FBECDBF02
:1013D000CF91DF910895DF93CF9300D000D000D05C
:1013E000CDB7DEB78A837C836B8381E089838A8172
:1013F000882361F08A81813049F08A81823031F01E
:101400008A81833019F081E0898342C082E0898338
:101410008A81282F30E03E832D838D819E8181300B
:101420009105E1F02D813E81223031052CF48D8132
:101430009E81009761F026C02D813E8122303105CA
:10144000A1F08D819E8183309105B1F01BC0E9E34D
:10145000F0E08081EB81FC81808314C0E6E3F0E062
:101460008081EB81FC8180830DC0E3E3F0E080812B
:10147000EB81FC81808306C0E0E3F0E08081EB81BA
:10148000FC8180838B819C81009711F486E08983A5
:10149000898126960FB6F894DEBF0FBECDBFCF91DF
:1014A000DF910895DF93CF93CDB7DEB727970FB6BF
:1014B000F894DEBF0FBECDBF8A836B835D834C8300
:1014C00081E089838A81882361F08A81813049F0B3
:1014D0008A81823031F08A81833019F081E08983FA
:1014E0007EC08B81883018F083E0898378C082E0E9
:1014F00089838A81282F30E03F832E834E815F814C
:101500004130510559F18E819F818230910534F42B
:101510002E813F812115310569F05BC04E815F81CD
:101520004230510579F18E819F818330910509F414
:101530003DC04FC0E9E3F0E08081282F30E08B818F
:10154000882F90E0A90102C0559547958A95E2F74A
:10155000CA018170EC81FD8180833BC0E6E3F0E04D
:101560008081282F30E08B81882F90E0A90102C074
:10157000559547958A95E2F7CA018170EC81FD8106
:10158000808327C0E3E3F0E08081282F30E08B8167
:10159000882F90E0A90102C0559547958A95E2F7FA
:1015A000CA018170EC81FD81808313C0E0E3F0E02B
:1015B0008081282F30E08B81882F90E0A90102C024
:1015C000559547958A95E2F7CA018170EC81FD81B6
:1015D00080838C819D81009711F486E089838981C5
:1015E00027960FB6F894DEBF0FBECDBFCF91DF9127
:1015F0000895DF93CF9300D00F92CDB7DEB78A83E3
:101600006B8381E089838A81882361F08A818130BC
:1016100049F08A81823031F08A81833019F081E08B
:10162000898312C08B81883018F083E089830CC0D5
:1016300082E089838A816B8140E00E9488088A81E8
:101640006B8141E00E94A50689810F900F900F9059
:10165000CF91DF910895DF93CF9300D000D00F9208
:10166000CDB7DEB78C836D8381E08B831092D90078
:101670001092D8001A820CC09A818D81981719F4A3
:101680008CE08B830AC08DE08B838A818F5F8A8395
:1016900090917A008A81891778F38D81282F30E024
:1016A000C901880F991F820F931F880F991F8259B4
:1016B0009F4F9093D9008093D8008091D80090914B
:1016C000D900009719F486E08B83C1C08C818A30E1
:1016D00018F08BE08B83BBC0E091D800F091D9006B
:1016E00081818823C1F0E091D800F091D9008181F7
:1016F000813089F0E091D800F091D9008181823069
:1017000051F0E091D800F091D9008181833019F037
:1017100081E08B839CC0198210C0E091D800F091C9
:10172000D90090818981981719F48CE08B830AC0C5
:101730008DE08B8389818F5F898390917A00898185
:10174000891758F38B818C3009F081C0E091D80063
:10175000F091D90082818130D1F5E091D800F091EB
:10176000D9008381E091D800F091D9009481692F4C
:101770004FEF0E948808E091D800F091D900838152
:10178000E091D800F091D9002481E091D800F09147
:10179000D9009581622F492F0E94A506E091D800BB
:1017A000F091D90081816FEF0E941908E091D80073
:1017B000F091D90021818C81882F90E0FC01E755C0
:1017C000FF4F9081822F692F0E944F0640C0E09109
:1017D000D800F091D90082818823C9F5E091D80022
:1017E000F091D9008381E091D800F091D9009481E3
:1017F000692F4FEF0E948808E091D800F091D9003E
:101800008381E091D800F091D9002481E091D80043
:10181000F091D9009581622F492F0E94A506E09191
:10182000D800F091D90081816FEF0E941908E091F2
:10183000D800F091D90021818C81882F90E0FC01A3
:10184000ED54FF4F9081822F692F0E944F068B81AC
:101850000F900F900F900F900F90CF91DF91089500
:10186000DF93CF93CDB7DEB767970FB6F894DEBF9F
:101870000FBECDBF898B81E0888B8989843618F0B3
:101880008EE0888BCBC0188A1F860BC089899AE0AE
:10189000692F0E94CA1660E00E942B0B8F858F5F14
:1018A0008F878F85823390F380E090E0A0EFB1E4E2
:1018B0008B879C87AD87BE876B857C858D859E8554
:1018C00020E030E04AEF54E40E941F02DC01CB012B
:1018D0008F839887A987BA876F81788589859A854C
:1018E00020E030E040E85FE30E94250488232CF4E8
:1018F00081E090E09E838D833FC06F8178858985EC
:101900009A8520E03FEF4FE757E40E94C503181681
:101910004CF56B857C858D859E8520E030E040E22E
:1019200051E40E941F02DC01CB01BC01CD010E94E9
:101930004900DC01CB019E838D830FC088EC90E0D1
:101940009C838B838B819C810197F1F79C838B8394
:101950008D819E8101979E838D838D819E810097CD
:1019600069F714C06F81788589859A850E9449003E
:10197000DC01CB019E838D838D819E819A83898337
:1019800089819A810197F1F79A838983E091D80040
:10199000F091D90083818F8BE091D800F091D9002C
:1019A00084818E8BE091D800F091D90085811D8AC9
:1019B000882311F481E08D8B8F896E894D890E9477
:1019C000A5061F860CC089899AE0692F0E94CA1655
:1019D000892F61E00E942B0B8F858F5F8F878F850A
:1019E000863988F31F86E091D800F091D900838171
:1019F0008C8BE091D800F091D90084818B8BE091A1
:101A0000D800F091D90085811A8A882311F481E0E9
:101A10008A8B8C896B894A890E94A506888967967A
:101A20000FB6F894DEBF0FBECDBFCF91DF91089502
:101A3000DF93CF9300D000D0CDB7DEB786E08C83A4
:101A400080E890E09B838A838A819B81009719F4C8
:101A500086E08C8337C019820EC0EA81FB819081B9
:101A60008981981719F487E08C830AC088E08C83F9
:101A700089818F5F898390917B008981891768F3C1
:101A80008C818730F9F48AE08C83EA81FB8181E0E4
:101A90008383EA81FB818181EA81FB819281692FC5
:101AA00041E00E948808EA81FB818181EA81FB8113
:101AB0002281EA81FB819381622F492F0E94A50632
:101AC00089E08C838C810F900F900F900F90CF91B5
:101AD000DF910895DF93CF9300D000D0CDB7DEB76C
:101AE00086E08C8380E890E09B838A838A819B8157
:101AF000009719F486E08C8336C019820EC0EA8103
:101B0000FB8190818981981719F487E08C830AC042
:101B100088E08C8389818F5F898390917B008981A4
:101B2000891768F38C818730F1F489E08C83EA812E
:101B3000FB811382EA81FB818181EA81FB819281B1
:101B4000692F41E00E948808EA81FB818181EA8156
:101B5000FB812281EA81FB819381622F492F0E94C0
:101B6000A5068AE08C838C810F900F900F900F90C8
:101B7000CF91DF910895DF93CF9300D00F92CDB72F
:101B8000DEB786E08B8380E890E09A838983898141
:101B90009A81009719F486E08B8311C0E981FA815C
:101BA0008381813021F40E946A0D8B8308C0E98112
:101BB000FA818381882319F40E94180D8B838B810D
:101BC0000F900F900F90CF91DF9108950F931F9377
:101BD000DF93CF93CDB7DEB7CE55D0400FB6F89494
:101BE000DEBF0FBECDBF84E890E09093D900809314
:101BF000D800E091D800F091D90080816FEF0E9469
:101C00001908E091D800F091D9008181E091D800C5
:101C1000F091D9009381692F41E00E948808E091FA
:101C2000D800F091D9008181E091D800F091D900DD
:101C30009481692F41E00E948808E091D800F091DA
:101C4000D9008181E091D800F091D9009281692F6B
:101C500041E00E948808FE01E55AFF4F80E090E0D5
:101C6000A0EFB1E480839183A283B3838E01095AEC
:101C70001F4FFE01E55AFF4F608171818281938180
:101C800020E030E04AEF54E40E941F02DC01CB0167
:101C9000F80180839183A283B383FE01E95AFF4F49
:101CA000608171818281938120E030E040E85FE3D0
:101CB0000E942504882344F4FE01EB5AFF4F81E083
:101CC00090E09183808364C0FE01E95AFF4F6081F8
:101CD00071818281938120E03FEF4FE757E40E94BA
:101CE000C50318160CF043C0FE01E55AFF4F608192
:101CF00071818281938120E030E040E251E40E94D2
:101D00001F02DC01CB018E010B5A1F4FBC01CD011C
:101D10000E944900DC01CB01F801918380831FC040
:101D2000FE01ED5AFF4F88EC90E091838083FE0125
:101D3000ED5AFF4F808191810197F1F7FE01ED5A35
:101D4000FF4F91838083DE01AB5ABF4FFE01EB5AF8
:101D5000FF4F80819181019711969C938E93FE0194
:101D6000EB5AFF4F808191810097D1F627C08E01F9
:101D70000B5A1F4FFE01E95AFF4F6081718182812A
:101D800093810E944900DC01CB01F801918380839B
:101D9000DE01AF5ABF4FFE01EB5AFF4F80819181A8
:101DA0008D939C93FE01EF5AFF4F808191810197A3
:101DB000F1F7FE01EF5AFF4F9183808382E00E948A
:101DC000B511FE01E35BFF4F80E090E0A0E7B1E4D6
:101DD00080839183A283B3838E01075B1F4FFE0133
:101DE000E35BFF4F60817181828193812BEA3AEA44
:101DF0004AE250E40E941F02DC01CB01F80180831B
:101E00009183A283B383FE01E75BFF4F6081718101
:101E10008281938120E030E040E85FE30E94250466
:101E2000882334F4FE01E85BFF4F81E08083B4C077
:101E3000FE01E75BFF4F608171818281938120E029
:101E400030E04FE753E40E94C50318160CF094C02D
:101E5000FE01E35BFF4F608171818281938120E00D
:101E600030E04AE754E40E941903DC01CB01FE0193
:101E7000EC5BFF4F80839183A283B3838E01005C70
:101E80001F4FFE01EC5BFF4F608171818281938166
:101E900020E030E04AEF54E40E941F02DC01CB0155
:101EA000F80180839183A283B383FE01E05CFF4F3E
:101EB000608171818281938120E030E040E85FE3BE
:101EC0000E94250488232CF481E090E09FAF8EAF20
:101ED00048C0FE01E05CFF4F608171818281938187
:101EE00020E03FEF4FE757E40E94C503181664F562
:101EF000FE01EC5BFF4F608171818281938120E064
:101F000030E040E251E40E941F02DC01CB01BC0141
:101F1000CD010E944900DC01CB019FAF8EAF0FC005
:101F200088EC90E09DAF8CAF8CAD9DAD0197F1F743
:101F30009DAF8CAF8EAD9FAD01979FAF8EAF8EAD35
:101F40009FAD009769F731C0FE01E05CFF4F6081F3
:101F50007181828193810E944900DC01CB019FAF96
:101F60008EAF8EAD9FAD9BAF8AAF8AAD9BAD019713
:101F7000F1F79BAF8AAF19C08E01085B1F4FFE01BE
:101F8000E75BFF4F60817181828193810E944900EC
:101F9000DC01CB01F8018083FE01E85BFF4F80810B
:101FA00089AF89AD8A95F1F789AF88E30E94B511B1
:101FB00080E090E0A0E8BFE38DAB9EABAFABB8AFE5
:101FC0006DA97EA98FA998AD20E030E04AEF54E4D6
:101FD0000E941F02DC01CB0189AB9AABABABBCAB5F
:101FE00069A97AA98BA99CA920E030E040E85FE3C9
:101FF0000E94250488232CF481E090E098AB8FA701
:102000003FC069A97AA98BA99CA920E03FEF4FE7BF
:1020100057E40E94C50318164CF56DA97EA98FA937
:1020200098AD20E030E040E251E40E941F02DC0164
:10203000CB01BC01CD010E944900DC01CB0198AB72
:102040008FA70FC088EC90E09EA78DA78DA59EA5B9
:102050000197F1F79EA78DA78FA598A9019798AB37
:102060008FA78FA598A9009769F714C069A97AA9C5
:102070008BA99CA90E944900DC01CB0198AB8FA7DA
:102080008FA598A99CA78BA78BA59CA50197F1F775
:102090009CA78BA78CE00E94B51180E090E0A0E89F
:1020A000BFE38FA398A7A9A7BAA76FA178A589A511
:1020B0009AA520E030E04AEF54E40E941F02DC01C0
:1020C000CB018BA39CA3ADA3BEA36BA17CA18DA1CF
:1020D0009EA120E030E040E85FE30E9425048823D1
:1020E0002CF481E090E09AA389A33FC06BA17CA16E
:1020F0008DA19EA120E03FEF4FE757E40E94C5036A
:1021000018164CF56FA178A589A59AA520E030E0B6
:1021100040E251E40E941F02DC01CB01BC01CD0171
:102120000E944900DC01CB019AA389A30FC088EC6F
:1021300090E098A38F8F8F8D98A10197F1F798A3C6
:102140008F8F89A19AA101979AA389A389A19AA1A6
:10215000009769F714C06BA17CA18DA19EA10E947C
:102160004900DC01CB019AA389A389A19AA19E8F82
:102170008D8F8D8D9E8D0197F1F79E8F8D8F81E0D4
:102180000E94B51180E090E0A0E7B1E4898F9A8FBA
:10219000AB8FBC8F698D7A8D8B8D9C8D20E030E06C
:1021A0004AEF54E40E941F02DC01CB018D8B9E8B11
:1021B000AF8BB88F6D897E898F89988D20E030E054
:1021C00040E85FE30E94250488232CF481E090E03E
:1021D0009C8B8B8B3FC06D897E898F89988D20E089
:1021E0003FEF4FE757E40E94C50318164CF5698D81
:1021F0007A8D8B8D9C8D20E030E040E251E40E948E
:102200001F02DC01CB01BC01CD010E944900DC01B1
:10221000CB019C8B8B8B0FC088EC90E09A8B898BC9
:1022200089899A890197F1F79A8B898B8B899C8987
:1022300001979C8B8B8B8B899C89009769F714C0C5
:102240006D897E898F89988D0E944900DC01CB01C0
:102250009C8B8B8B8B899C89988B8F878F8598899A
:102260000197F1F7988B8F8786E00E94B51180E087
:1022700090E0A0E0B0E48B879C87AD87BE876B853C
:102280007C858D859E8520E030E04AEF54E40E94F5
:102290001F02DC01CB018F839887A987BA876F81E2
:1022A000788589859A8520E030E040E85FE30E94E8
:1022B000250488232CF481E090E09E838D833FC029
:1022C0006F81788589859A8520E03FEF4FE757E455
:1022D0000E94C50318164CF56B857C858D859E85FF
:1022E00020E030E040E251E40E941F02DC01CB011B
:1022F000BC01CD010E944900DC01CB019E838D838E
:102300000FC088EC90E09C838B838B819C8101972C
:10231000F1F79C838B838D819E8101979E838D83B2
:102320008D819E81009769F714C06F8178858985BA
:102330009A850E944900DC01CB019E838D838D81AB
:102340009E819A83898389819A810197F1F79A8383
:102350008983C25ADF4F0FB6F894DEBF0FBECDBFE0
:10236000CF91DF911F910F910895DF93CF93CDB758
:10237000DEB76D970FB6F894DEBF0FBECDBF8D8F61
:1023800084E890E09093D9008093D800E091D80041
:10239000F091D9008181E091D800F091D90092812B
:1023A000692F40E00E94A506E091D800F091D90085
:1023B0008181E091D800F091D9009481692F40E0AB
:1023C0000E94A506E091D800F091D9008181E091AA
:1023D000D800F091D9009381692F41E00E94A506B1
:1023E000E091D800F091D90080816D8D0E944F0658
:1023F000E091D800F091D9008181E091D800F0916E
:10240000D9009381692F40E00E94A50680E090E00A
:10241000A0E8BFE3898F9A8FAB8FBC8F698D7A8DCF
:102420008B8D9C8D20E030E04AEF54E40E941F0227
:10243000DC01CB018D8B9E8BAF8BB88F6D897E8934
:102440008F89988D20E030E040E85FE30E9425040A
:1024500088232CF481E090E09C8B8B8B3FC06D89AE
:102460007E898F89988D20E03FEF4FE757E40E94E7
:10247000C50318164CF5698D7A8D8B8D9C8D20E0E7
:1024800030E040E251E40E941F02DC01CB01BC01BC
:10249000CD010E944900DC01CB019C8B8B8B0FC0CE
:1024A00088EC90E09A8B898B89899A890197F1F75A
:1024B0009A8B898B8B899C8901979C8B8B8B8B89C1
:1024C0009C89009769F714C06D897E898F89988DE2
:1024D0000E944900DC01CB019C8B8B8B8B899C89F2
:1024E000988B8F878F8598890197F1F7988B8F87C5
:1024F000E091D800F091D9008181E091D800F0916D
:10250000D9009381692F41E00E94A50680E090E008
:10251000A0E8BFE38B879C87AD87BE876B857C85F2
:102520008D859E8520E030E04AEF54E40E941F0232
:10253000DC01CB018F839887A987BA876F81788563
:1025400089859A8520E030E040E85FE30E94250419
:1025500088232CF481E090E09E838D833FC06F81BF
:10256000788589859A8520E03FEF4FE757E40E9400
:10257000C50318164CF56B857C858D859E8520E0FE
:1025800030E040E251E40E941F02DC01CB01BC01BB
:10259000CD010E944900DC01CB019E838D830FC0D9
:1025A00088EC90E09C838B838B819C810197F1F771
:1025B0009C838B838D819E8101979E838D838D81EA
:1025C0009E81009769F714C06F81788589859A8507
:1025D0000E944900DC01CB019E838D838D819E8109
:1025E0009A83898389819A810197F1F79A838983F4
:1025F0006D960FB6F894DEBF0FBECDBFCF91DF91C1
:102600000895DF93CF93CDB7DEB76D970FB6F894EB
:10261000DEBF0FBECDBF8D8F84E890E09093D900D0
:102620008093D800E091D800F091D9008181E091A9
:10263000D800F091D9009281692F41E00E94A5064F
:10264000E091D800F091D9008181E091D800F0911B
:10265000D9009481692F40E00E94A506E091D8003E
:10266000F091D9008181E091D800F091D900938157
:10267000692F41E00E94A506E091D800F091D900B1
:1026800080816D8D0E944F06E091D800F091D900B5
:102690008181E091D800F091D9009381692F40E0C9
:1026A0000E94A50680E090E0A0E8BFE3898F9A8FA2
:1026B000AB8FBC8F698D7A8D8B8D9C8D20E030E047
:1026C0004AEF54E40E941F02DC01CB018D8B9E8BEC
:1026D000AF8BB88F6D897E898F89988D20E030E02F
:1026E00040E85FE30E94250488232CF481E090E019
:1026F0009C8B8B8B3FC06D897E898F89988D20E064
:102700003FEF4FE757E40E94C50318164CF5698D5B
:102710007A8D8B8D9C8D20E030E040E251E40E9468
:102720001F02DC01CB01BC01CD010E944900DC018C
:10273000CB019C8B8B8B0FC088EC90E09A8B898BA4
:1027400089899A890197F1F79A8B898B8B899C8962
:1027500001979C8B8B8B8B899C89009769F714C0A0
:102760006D897E898F89988D0E944900DC01CB019B
:102770009C8B8B8B8B899C89988B8F878F85988975
:102780000197F1F7988B8F87E091D800F091D900ED
:102790008181E091D800F091D9009381692F41E0C7
:1027A0000E94A50680E090E0A0E8BFE38B879C87AD
:1027B000AD87BE876B857C858D859E8520E030E06A
:1027C0004AEF54E40E941F02DC01CB018F839887FB
:1027D000A987BA876F81788589859A8520E030E05E
:1027E00040E85FE30E94250488232CF481E090E018
:1027F0009E838D833FC06F81788589859A8520E08F
:102800003FEF4FE757E40E94C50318164CF56B8560
:102810007C858D859E8520E030E040E251E40E9479
:102820001F02DC01CB01BC01CD010E944900DC018B
:10283000CB019E838D830FC088EC90E09C838B83BB
:102840008B819C810197F1F79C838B838D819E8185
:1028500001979E838D838D819E81009769F714C0B7
:102860006F81788589859A850E944900DC01CB01BA
:102870009E838D838D819E819A83898389819A81AC
:102880000197F1F79A8389836D960FB6F894DEBFAE
:102890000FBECDBFCF91DF910895DF93CF93CDB71A
:1028A000DEB781E00E94B511CF91DF910895DF93EB
:1028B000CF93CDB7DEB761970FB6F894DEBF0FBEEA
:1028C000CDBF998B888B1F867CC0E889F989808170
:1028D0000E940113888999890196998B888B80E0E1
:1028E00090E0A0E8BFE38B879C87AD87BE876B85B0
:1028F0007C858D859E8520E030E04AEF54E40E947F
:102900001F02DC01CB018F839887A987BA876F816B
:10291000788589859A8520E030E040E85FE30E9471
:10292000250488232CF481E090E09E838D833FC0B2
:102930006F81788589859A8520E03FEF4FE757E4DE
:102940000E94C50318164CF56B857C858D859E8588
:1029500020E030E040E251E40E941F02DC01CB01A4
:10296000BC01CD010E944900DC01CB019E838D8317
:102970000FC088EC90E09C838B838B819C810197B6
:10298000F1F79C838B838D819E8101979E838D833C
:102990008D819E81009769F714C06F817885898544
:1029A0009A850E944900DC01CB019E838D838D8135
:1029B0009E819A83898389819A810197F1F79A830D
:1029C0008983E889F9898081882309F07ECF61961F
:1029D0000FB6F894DEBF0FBECDBFCF91DF91089543
:1029E000DF93CF93CDB7DEB761970FB6F894DEBF14
:1029F0000FBECDBF9C878B87CE0101969E878D87AA
:102A0000EDEBF0E0F88BEF87FAE0F98BEF85F889D2
:102A100000808F8598890196988B8F87ED85FE853C
:102A200000828D859E8501969E878D87998991501C
:102A3000998BE989EE2351F78B859C852AE030E05C
:102A4000B9010E94D6169C01CE010196FC01E20F4D
:102A5000F31F80810E9401138B859C852AE030E062
:102A6000B9010E94D616CB019C878B878B859C85EC
:102A7000009721F48B859C850E94F01461960FB617
:102A8000F894DEBF0FBECDBFCF91DF910895DF93E5
:102A9000CF9300D000D000D0CDB7DEB79E838D831A
:102AA00081E08C831B821A828B81882F90E02D819C
:102AB0003E81880F991F880F991F820F931FFC0179
:102AC0003396808189838D819E81009719F486E0F9
:102AD0008C8360C01B8232C08B81882F90E02D8157
:102AE0003E81880F991F880F991FF901E80FF91F80
:102AF00050818B81882F90E02D813E81880F991F16
:102B0000880F991F820F931FFC01319640818B81A2
:102B1000882F90E02D813E81880F991F880F991F83
:102B2000820F931FFC0133969081852F642F492FCC
:102B30000E94A5068C838B818F5F8B838B81843071
:102B400058F21A8224C08A81882F90E02D813E811C
:102B50000496880F991F880F991FF901E80FF91F34
:102B600040818A81882F90E02D813E81880F991FB6
:102B7000880F991F820F931FFC0131969081842F3B
:102B8000692F0E94F90A8C838A818F5F8A838A81E8
:102B90008430C8F28C8126960FB6F894DEBF0FBE43
:102BA000CDBFCF91DF910895DF93CF93CDB7DEB73F
:102BB00029970FB6F894DEBF0FBECDBF9F838E83DB
:102BC000798768871C821B8281E08A838FEF8D83DF
:102BD00089E890E09F838E838E819F81009721F00A
:102BE00088859985009719F486E08A8397C01C82AE
:102BF00091C0198224C08981882F90E02E813F8165
:102C0000880F991F880F991FF901E80FF91F40815C
:102C10008981882F90E02E813F81880F991F880F2E
:102C2000991F820F931FFC0131969081842F692F89
:102C300040E00E94A5068A8389818F5F898389810C
:102C40008430C8F28C81882F90E02E813F81880FDC
:102C5000991F880F991FF901E80FF91F40818C8196
:102C6000882F90E02E813F81880F991F880F991F30
:102C7000820F931FFC0131969081842F692F41E0D0
:102C80000E94A5061B823FC08B81882F90E02E8179
:102C90003F810496880F991F880F991FF901E80F4B
:102CA000F91F40818B81882F90E02E813F81880F12
:102CB000991F880F991F820F931FFC0171969081B5
:102CC0009E012B5F3F4F842F692FA9010E94520A5A
:102CD0008A838D818130A1F48C81482F50E08B81D3
:102CE000282F30E0CA01880F991F880F991F820F83
:102CF000931FFC01E953FF4F8081E885F9858083AC
:102D00008B818F5F8B838B81843008F4BDCF8C8166
:102D10008F5F8C838C81843008F46BCF8A812996F5
:102D20000FB6F894DEBF0FBECDBFCF91DF910895EF
:102D3000DF93CF93CDB7DEB72B970FB6F894DEBFF6
:102D40000FBECDBF78940E94E60DCE010196988704
:102D50008F83E0E6F0E0FA87E987F6E0FB87E98514
:102D6000FA85008089859A8501969A878987EF81FF
:102D7000F88500828F819885019698878F839B853F
:102D800091509B87EB85EE2351F785E090E00E9400
:102D9000F014FBCF991B79E004C0991F961708F037
:102DA000961B881F7A95C9F780950895AA1BBB1BAF
:102DB00051E107C0AA1FBB1FA617B70710F0A61B3B
:102DC000B70B881F991F5A95A9F780959095BC015C
:102DD000CD0108952F923F924F925F926F927F9212
:102DE0008F929F92AF92BF92CF92DF92EF92FF921B
:102DF0000F931F93CF93DF93CDB7DEB7CA1BDB0BC7
:102E00000FB6F894DEBF0FBECDBF09942A8839886B
:102E100048885F846E847D848C849B84AA84B98472
:102E2000C884DF80EE80FD800C811B81AA81B9817E
:102E3000CE0FD11D0FB6F894DEBF0FBECDBFED0192
:062E40000895F894FFCF95
:102E460041686D656400000000000000000000009D
:102E56000001000001000001010002020000000064
:102E66000101010000010001020304000103050045
:102E7600010306000103070001030001000301012D
:102E8600000302010003030100C0F9A4B099928275
:102E9600F880903F065B4F666D7D077F6F3031325D
:102EA600333435363738393738392F3435362A31D1
:082EB60032332D43303D2B00A7
:00000001FF
