:100000000C942A000C9447000C9447000C94470071
:100010000C9447000C9447000C9447000C94470044
:100020000C9447000C9447000C9447000C94470034
:100030000C9447000C9447000C9447000C94470024
:100040000C9447000C9447000C9447000C94470014
:100050000C94470011241FBECFE5D8E0DEBFCDBF12
:1000600010E0A0E6B0E0E2E2FDE102C005900D92F2
:10007000A239B107D9F710E0A2E9B0E001C01D92A2
:10008000A439B107E1F70E944F0D0C948F0E0C9428
:100090000000EF92FF920F931F937B018C0120E0F1
:1000A00030E040E05FE40E94490388238CF0C801FF
:1000B000B70120E030E040E05FE40E94C1010E940F
:1000C000A9039B01AC01205030404040504806C07D
:1000D000C801B7010E94A9039B01AC01B901CA0183
:1000E0001F910F91FF90EF900895A0E0B0E0EBE733
:1000F000F0E00C94580EDC012B01FA019C91923037
:1001000008F439C1EB018881823008F433C194309E
:1001100069F4843009F02FC111969C91119789815F
:10012000981709F428C1A0E6B0E025C1843009F48D
:1001300021C18230A9F4923009F01DC19A01AD01AC
:1001400088E0EA010990AE01E90109929E0181501F
:10015000C1F7E201898111969C918923818308C1AD
:10016000923009F407C112962D903C901397EB0141
:100170008A819B811496AD90BD90CD90DC901797AD
:10018000EC80FD800E811F819101281B390BB90184
:1001900037FF04C066277727621B730B6032710537
:1001A0000CF061C0121613066CF537014801062EDB
:1001B00004C096948794779467940A94D2F721E0C8
:1001C00030E040E050E004C0220F331F441F551FB1
:1001D0006A95D2F721503040404050402E213F21B7
:1001E00040235123211531054105510521F021E01E
:1001F00030E040E050E079018A01E628F72808293C
:1002000019293CC0232BD1F1260E371E350146019A
:10021000062E04C096948794779467940A94D2F734
:1002200021E030E040E050E004C0220F331F441FC3
:10023000551F6A95D2F721503040404050402A2146
:100240003B214C215D21211531054105510521F04E
:1002500021E030E040E050E059016A01A628B728CB
:10026000C828D9280BC0821593052CF01C01AA249C
:10027000BB24650103C0EE24FF24870111969C91E5
:10028000D20111968C91981709F445C0992339F041
:10029000A80197012A193B094C095D0906C0A6016E
:1002A00095012E193F09400B510B57FD08C01182D3
:1002B0003382228224833583468357831DC081E0A5
:1002C00081833382228288279927DC01821B930B4A
:1002D000A40BB50B84839583A683B7830DC0220F2F
:1002E000331F441F551F24833583468357838281E0
:1002F000938101979383828324813581468157813D
:10030000DA01C9010197A109B1098F5F9F4FAF4F72
:10031000BF4328F30BC0918333822282EA0CFB1C7B
:100320000C1D1D1DE482F5820683178383E0808304
:10033000248135814681578157FF1AC0C901AA27F8
:1003400097FDA095BA2F81709070A070B0705695EF
:10035000479537952795822B932BA42BB52B848318
:100360009583A683B7838281938101969383828349
:10037000DF0101C0D201CD01CDB7DEB7E2E10C94BF
:10038000740EA0E2B0E0E7ECF1E00C94640E698337
:100390007A838B839C832D833E834F835887E9E048
:1003A000EE2EF12CEC0EFD1ECE010196B7010E943F
:1003B000D2048E010F5E1F4FCE010596B8010E9438
:1003C000D2048A8991E089278A8BC701B801AE01DE
:1003D000475E5F4F0E9475000E94FD03A096E6E015
:1003E0000C94800EA0E2B0E0E8EFF1E00C94640E13
:1003F00069837A838B839C832D833E834F835887C5
:10040000F9E0EF2EF12CEC0EFD1ECE010196B701A6
:100410000E94D2048E010F5E1F4FCE010596B801D7
:100420000E94D204C701B801AE01475E5F4F0E942F
:1004300075000E94FD03A096E6E00C94800EA0E2F9
:10044000B0E0E5E2F2E00C94580E69837A838B8386
:100450009C832D833E834F835887CE010196BE0136
:10046000675F7F4F0E94D204CE010596BE016F5E8A
:100470007F4F0E94D2049985923088F0898982301A
:10048000C8F0943019F4823051F404C0843029F457
:10049000923081F480E690E0C6C0923049F420E0CA
:1004A0009A858A89981321E02A87CE010996BBC0D4
:1004B000823049F420E09A858A89981321E02A8BBA
:1004C000CE014196B0C02D843E844F8458886D88FB
:1004D0007E888F88988CEE24FF248701AA24BB2471
:1004E000650140E050E060E070E0E0E0F0E0C10174
:1004F00081709070892BE9F0E60CF71C081D191D1E
:100500009A01AB012A0D3B1D4C1D5D1D80E090E062
:10051000A0E0B0E0E614F7040805190520F481E036
:1005200090E0A0E0B0E0BA01A901480F591F6A1F8E
:100530007B1FAA0CBB1CCC1CDD1C97FE08C081E0F5
:1005400090E0A0E0B0E0A82AB92ACA2ADB2A3196B6
:10055000E032F10549F0660C771C881C991C569412
:10056000479437942794C3CFFA85EA892B893C892D
:100570008B859C85280F391F2E5F3F4F17C0CA01FE
:1005800081709070892B61F016950795F794E79428
:1005900080E090E0A0E0B0E8E82AF92A0A2B1B2BC3
:1005A00076956795579547952F5F3F4F77FDE7CF36
:1005B0000CC0440F551F661F771F17FD4160EE0CDE
:1005C000FF1C001F111F21503040403090E05907A0
:1005D00090E0690790E4790760F32B8F3C8FDB0193
:1005E000CA018F779070A070B07080349105A1051A
:1005F000B10561F447FD0AC0E114F10401051105DC
:1006000029F0405C5F4F6F4F7F4F40781A8EFE1786
:1006100011F081E08A8F4D8F5E8F6F8F78A383E01A
:10062000898FCE0149960E94FD03A096E2E10C94C9
:10063000740EA8E1B0E0EFE1F3E00C94640E69837E
:100640007A838B839C832D833E834F83588789E0F5
:10065000E82EF12CEC0EFD1ECE010196B7010E9492
:10066000D2048E010F5E1F4FCE010596B8010E9485
:10067000D2048985823040F08989823028F0C70110
:10068000B8010E944A0501C08FEF6896E6E00C941D
:10069000800EA8E1B0E0EFE4F3E00C94640E69830F
:1006A0007A838B839C832D833E834F83588789E095
:1006B000E82EF12CEC0EFD1ECE010196B7010E9432
:1006C000D2048E010F5E1F4FCE010596B8010E9425
:1006D000D2048985823040F08989823028F0C701B0
:1006E000B8010E944A0501C08FEF6896E6E00C94BD
:1006F000800EA8E1B0E0EFE7F3E00C94640E6983AC
:100700007A838B839C832D833E834F83588789E034
:10071000E82EF12CEC0EFD1ECE010196B7010E94D1
:10072000D2048E010F5E1F4FCE010596B8010E94C4
:10073000D2048985823040F08989823028F0C7014F
:10074000B8010E944A0501C081E06896E6E00C9479
:10075000800EACE0B0E0EFEAF3E00C94680E698341
:100760007A838B839C83CE010196BE016B5F7F4FA2
:100770000E94D2048D81823061F1823050F1843048
:1007800021F48E81882351F12EC02F81388537FDC9
:1007900020C06E812F3131051CF06623F9F023C093
:1007A0008EE190E0821B930B29853A854B855C8511
:1007B00004C056954795379527958A95D2F76623B5
:1007C000B1F050954095309521953F4F4F4F5F4F79
:1007D0000EC020E030E040E050E009C02FEF3FEFD6
:1007E0004FEF5FE704C020E030E040E050E8B9019F
:1007F000CA012C96E2E00C94840EDF92EF92FF92F5
:100800000F931F93FC01E480F58006811781D1804E
:100810008081823048F480E090E0A0E1B0E0E82AF6
:10082000F92A0A2B1B2BA5C0843009F49FC0823003
:1008300021F4EE24FF24870105C0E114F104010531
:10084000110519F4E0E0F0E096C0628173819FEF3A
:10085000623879070CF05BC022E83FEF261B370BAC
:100860002A3131052CF020E030E040E050E02AC091
:10087000B801A701022E04C0769567955795479554
:100880000A94D2F781E090E0A0E0B0E004C0880FC5
:10089000991FAA1FBB1F2A95D2F70197A109B10979
:1008A0008E219F21A023B1230097A105B10521F03E
:1008B00081E090E0A0E0B0E09A01AB01282B392B59
:1008C0004A2B5B2BDA01C9018F779070A070B07052
:1008D00080349105A105B10539F427FF09C0205CDA
:1008E0003F4F4F4F5F4F04C0215C3F4F4F4F5F4F13
:1008F000E0E0F0E02030A0E03A07A0E04A07A0E402
:100900005A0710F0E1E0F0E079018A0127C0603871
:10091000710564F5FB01E158FF4FD801C7018F77DE
:100920009070A070B07080349105A105B10539F4C4
:10093000E7FE0DC080E490E0A0E0B0E004C08FE3EB
:1009400090E0A0E0B0E0E80EF91E0A1F1B1F17FFA1
:1009500005C016950795F794E794319687E01695AC
:100960000795F794E7948A95D1F705C0EE24FF2404
:100970008701EFEFF0E06E2F679566276795902F60
:100980009F77D794DD24D7948E2F8695492F462BB9
:10099000582F5D29B701CA011F910F91FF90EF9069
:1009A000DF900895FC01DB01408151812281622F9B
:1009B0006F7770E0221F2227221F9381892F880FD3
:1009C000822B282F30E0991F9927991F11969C930D
:1009D000119721153105A9F54115510561057105DD
:1009E00011F482E037C082E89FEF13969C938E93B8
:1009F00012979A01AB0167E0220F331F441F551F66
:100A00006A95D1F783E08C930DC0220F331F441FEA
:100A1000551F12968D919C911397019713969C9355
:100A20008E931297203080E0380780E0480780E4FA
:100A3000580758F314962D933D934D935C93179755
:100A400008952F3F310579F4411551056105710570
:100A500019F484E08C93089564FF03C081E08C93C3
:100A600012C01C9210C02F57304013963C932E9307
:100A7000129783E08C9387E0440F551F661F771F02
:100A80008A95D1F7706414964D935D936D937C9322
:100A9000179708951F93DC01FB019C91923008F495
:100AA00047C08081823008F443C0943051F41196DD
:100AB0001C91843099F58181682F70E0611B710968
:100AC0003FC0843021F0923031F48230B9F181811D
:100AD000882389F12DC011961C9111978230F1F075
:100AE00081811817D9F412962D913C911397828128
:100AF00093818217930794F028173907BCF0149656
:100B00008D919D910D90BC91A02D248135814681C0
:100B10005781281739074A075B0718F4112341F05A
:100B20000AC082179307A407B50740F4112319F0F0
:100B300061E070E005C06FEF7FEF02C060E070E041
:100B4000CB011F910895DF93CF9300D000D00F9277
:100B5000CDB7DEB78A836B8381E089838A8188235E
:100B600061F08A81813049F08A81823031F08A8156
:100B7000833019F081E0898333C019828A81282F5C
:100B800030E03D832C838C819D8181309105D1F0B3
:100B90002C813D81223031052CF48C819D81009780
:100BA00061F01EC02C813D812230310581F08C81A5
:100BB0009D818330910581F013C0EBE3F0E08B81E0
:100BC00080830EC0E8E3F0E08B81808309C0E5E319
:100BD000F0E08B81808304C0E2E3F0E08B818083CE
:100BE00089810F900F900F900F900F90CF91DF9110
:100BF0000895DF93CF93CDB7DEB728970FB6F8945B
:100C0000DEBF0FBECDBF8A836B834C8381E08983B7
:100C10008A81882361F08A81813049F08A8182301B
:100C200031F08A81833019F081E0898332C18B8170
:100C3000883018F083E089832CC182E089838C811D
:100C4000813009F092C08A81282F30E038872F83C5
:100C50006F8178856130710569F18F819885823067
:100C6000910534F42F8138852115310569F064C070
:100C70006F8178856230710599F18F819885833015
:100C8000910509F443C058C0ABE3B0E0EBE3F0E0FA
:100C90008081482F8C81282F30E08B81882F90E035
:100CA000B90102C0660F771F8A95E2F7CB01842B4A
:100CB0008C93EFC0A8E3B0E0E8E3F0E08081482F38
:100CC0008C81282F30E08B81882F90E0B90102C001
:100CD000660F771F8A95E2F7CB01842B8C93D9C0DE
:100CE000A5E3B0E0E5E3F0E08081482F8C81282F78
:100CF00030E08B81882F90E0B90102C0660F771F2A
:100D00008A95E2F7CB01842B8C93C3C0A2E3B0E0B9
:100D1000E2E3F0E08081482F8C81282F30E08B8146
:100D2000882F90E0B90102C0660F771F8A95E2F71D
:100D3000CB01842B8C93ADC0ABE3B0E0EBE3F0E0F0
:100D400080818C93ABE3B0E0EBE3F0E080818C93A7
:100D5000ABE3B0E0EBE3F0E080818C93A2E3B0E0A2
:100D6000E2E3F0E080818C9394C08C81882309F0C9
:100D70008EC08A81282F30E03E832D836D817E8155
:100D80006130710561F18D819E818230910534F46D
:100D90002D813E812115310569F060C06D817E8114
:100DA0006230710589F18D819E818330910509F44E
:100DB00040C054C0ABE3B0E0EBE3F0E08081482FEB
:100DC0008B81282F30E081E090E0022E02C0880F56
:100DD000991F0A94E2F7809584238C935AC0A8E364
:100DE000B0E0E8E3F0E08081482F8B81282F30E0ED
:100DF00081E090E0022E02C0880F991F0A94E2F76A
:100E0000809584238C9345C0A5E3B0E0E5E3F0E052
:100E10008081482F8B81282F30E081E090E0022EE6
:100E200002C0880F991F0A94E2F7809584238C935F
:100E300030C0A2E3B0E0E2E3F0E08081482F8B8194
:100E4000282F30E081E090E0022E02C0880F991F29
:100E50000A94E2F7809584238C931BC0ABE3B0E047
:100E6000EBE3F0E080818C93ABE3B0E0EBE3F0E008
:100E700080818C93ABE3B0E0EBE3F0E080818C9376
:100E8000A2E3B0E0E2E3F0E080818C9302C084E072
:100E90008983898128960FB6F894DEBF0FBECDBF37
:100EA000CF91DF910895DF93CF9300D000D00F92C0
:100EB000CDB7DEB78A836B8381E089838A818823FB
:100EC00061F08A81813049F08A81823031F08A81F3
:100ED000833019F081E089834CC019828A81282FE0
:100EE00030E03D832C838C819D8181309105D1F050
:100EF0002C813D81223031052CF48C819D8100971D
:100F000061F01FC02C813D812230310581F08C8140
:100F10009D818330910581F014C0EAE3F0E08B817C
:100F2000808327C0E7E3F0E08B81808322C0E4E385
:100F3000F0E08B8180831DC0E1E3F0E08B81808352
:100F400018C0AAE3B0E0EAE3F0E080818C93A7E365
:100F5000B0E0E7E3F0E080818C93A4E3B0E0E4E369
:100F6000F0E080818C93A1E3B0E0E1E3F0E08081E8
:100F70008C9389810F900F900F900F900F90CF91CD
:100F8000DF910895DF93CF93CDB7DEB728970FB6E3
:100F9000F894DEBF0FBECDBF8A836B834C8381E0A4
:100FA00089838A81882361F08A81813049F08A812E
:100FB000823031F08A81833019F081E089833BC12E
:100FC00019828B81883018F083E0898334C182E0F4
:100FD00089838C81813009F092C08A81282F30E08A
:100FE00038872F836F8178856130710569F18F8132
:100FF00098858230910534F42F813885211531058B
:1010000069F064C06F8178856230710599F18F81D4
:1010100098858330910509F443C058C0AAE3B0E035
:10102000EAE3F0E08081482F8C81282F30E08B812B
:10103000882F90E0B90102C0660F771F8A95E2F70A
:10104000CB01842B8C93F7C0A7E3B0E0E7E3F0E09B
:101050008081482F8C81282F30E08B81882F90E071
:10106000B90102C0660F771F8A95E2F7CB01842B86
:101070008C93E1C0A4E3B0E0E4E3F0E08081482F8A
:101080008C81282F30E08B81882F90E0B90102C03D
:10109000660F771F8A95E2F7CB01842B8C93CBC028
:1010A000A1E3B0E0E1E3F0E08081482F8C81282FBC
:1010B00030E08B81882F90E0B90102C0660F771F66
:1010C0008A95E2F7CB01842B8C93B5C0AAE3B0E0FC
:1010D000EAE3F0E080818C93A7E3B0E0E7E3F0E09F
:1010E00080818C93A4E3B0E0E4E3F0E080818C9312
:1010F000A1E3B0E0E1E3F0E080818C939CC08C81BF
:10110000882309F096C08A81282F30E03E832D8302
:101110006D817E816130710571F18D819E8182309A
:10112000910534F42D813E812115310569F068C0A7
:101130006D817E8162307105A9F18D819E81833040
:10114000910509F446C05CC0AAE3B0E0EAE3F0E030
:101150008081482F8C81282F30E08B81882F90E070
:10116000B90102C0660F771F8A95E2F7CB0180951F
:1011700084238C9360C0A7E3B0E0E7E3F0E08081D4
:10118000482F8C81282F30E08B81882F90E0B90187
:1011900002C0660F771F8A95E2F7CB018095842302
:1011A0008C9349C0A4E3B0E0E4E3F0E08081482FF1
:1011B0008C81282F30E08B81882F90E0B90102C00C
:1011C000660F771F8A95E2F7CB01809584238C9375
:1011D00032C0A1E3B0E0E1E3F0E08081482F8C81F0
:1011E000282F30E08B81882F90E0B90102C0660F74
:1011F000771F8A95E2F7CB01809584238C931BC0DF
:10120000AAE3B0E0EAE3F0E080818C93A7E3B0E0EA
:10121000E7E3F0E080818C93A4E3B0E0E4E3F0E066
:1012200080818C93A1E3B0E0E1E3F0E080818C93D6
:1012300002C084E08983898128960FB6F894DEBFC6
:101240000FBECDBFCF91DF910895DF93CF9300D034
:1012500000D000D0CDB7DEB78A837C836B8381E07A
:1012600089838A81882361F08A81813049F08A816B
:10127000823031F08A81833019F081E0898342C065
:1012800082E089838A81282F30E03E832D838D81FF
:101290009E8181309105E1F02D813E812230310522
:1012A0002CF48D819E81009761F026C02D813E81B6
:1012B00022303105A1F08D819E8183309105B1F0FE
:1012C0001BC0E9E3F0E08081EB81FC81808314C0E6
:1012D000E6E3F0E08081EB81FC8180830DC0E3E3F5
:1012E000F0E08081EB81FC81808306C0E0E3F0E0E8
:1012F0008081EB81FC8180838B819C81009711F43C
:1013000086E08983898126960FB6F894DEBF0FBEEA
:10131000CDBFCF91DF910895DF93CF93CDB7DEB7E7
:1013200027970FB6F894DEBF0FBECDBF8A836B83BD
:101330005D834C8381E089838A81882361F08A817F
:10134000813049F08A81823031F08A81833019F00E
:1013500081E089837EC08B81883018F083E08983A7
:1013600078C082E089838A81282F30E03F832E83F2
:101370004E815F814130510559F18E819F818230CC
:10138000910534F42E813F812115310569F05BC050
:101390004E815F814230510579F18E819F8183308A
:1013A000910509F43DC04FC0E9E3F0E08081282FAA
:1013B00030E08B81882F90E0A90102C055954795B8
:1013C0008A95E2F7CA018170EC81FD8180833BC080
:1013D000E6E3F0E08081282F30E08B81882F90E0D9
:1013E000A90102C0559547958A95E2F7CA01817017
:1013F000EC81FD81808327C0E3E3F0E08081282F2A
:1014000030E08B81882F90E0A90102C05595479567
:101410008A95E2F7CA018170EC81FD81808313C057
:10142000E0E3F0E08081282F30E08B81882F90E08E
:10143000A90102C0559547958A95E2F7CA018170C6
:10144000EC81FD8180838C819D81009711F486E081
:101450008983898127960FB6F894DEBF0FBECDBF72
:10146000CF91DF910895DF93CF9300D000D00F92FA
:10147000CDB7DEB78C836D8381E08B8310929300B0
:10148000109292001A820CC09A818D81981719F4DB
:101490008CE08B830AC08DE08B838A818F5F8A8387
:1014A000909174008A81891778F38D81282F30E01C
:1014B000C901880F991F820F931F880F991F8859A0
:1014C0009F4F90939300809392008091920090910F
:1014D0009300009719F486E08B83C1C08C818A3019
:1014E00018F08BE08B83BBC0E0919200F0919300E9
:1014F00081818823C1F0E0919200F0919300818175
:10150000813089F0E0919200F091930081818230E6
:1015100051F0E0919200F09193008181833019F0B5
:1015200081E08B839CC0198210C0E0919200F09101
:10153000930090818981981719F48CE08B830AC0FD
:101540008DE08B8389818F5F89839091740089817D
:10155000891758F38B818C3009F081C0E09192009B
:10156000F091930082818130D1F5E0919200F09169
:1015700093008381E0919200F09193009481692F10
:1015800041E00E94C207E0919200F09193008381B4
:10159000E0919200F09193002481E0919200F0910B
:1015A00093009581622F492F0E94F905E0919200E6
:1015B000F091930081816FEF0E945307E0919200B8
:1015C000F091930021818C81882F90E0FC01E258FA
:1015D000FF4F9081822F692F0E94A30540C0E091A8
:1015E0009200F091930082818823C9F5E0919200E6
:1015F000F09193008381E0919200F09193009481A7
:10160000692F41E00E94C207E0919200F09193009F
:101610008381E0919200F09193002481E091920007
:10162000F09193009581622F492F0E94F905E09176
:101630009200F091930081816FEF0E945307E09137
:101640009200F091930021818C81882F90E0FC0121
:10165000E857FF4F9081822F692F0E94A3058B814D
:101660000F900F900F900F900F90CF91DF910895F2
:10167000DF93CF93CDB7DEB7A4970FB6F894DEBF54
:101680000FBECDBF8E8F81E08D8F8E8D843618F08A
:101690008EE08D8F2CC11D8E8E8D9AE0692F0E9459
:1016A000250E60E00E94330A80E090E0A0EFB1E4F4
:1016B000898F9A8FAB8FBC8F698D7A8D8B8D9C8D26
:1016C00020E030E04AEF54E40E941F02DC01CB012D
:1016D0008D8B9E8BAF8BB88F6D897E898F89988D0E
:1016E00020E030E040E85FE30E94790388232CF497
:1016F00081E090E09C8B8B8B3FC06D897E898F89C8
:10170000988D20E03FEF4FE757E40E941903181629
:101710004CF5698D7A8D8B8D9C8D20E030E040E218
:1017200051E40E941F02DC01CB01BC01CD010E94EB
:101730004900DC01CB019C8B8B8B0FC088EC90E0C7
:101740009A8B898B89899A890197F1F79A8B898B72
:101750008B899C8901979C8B8B8B8B899C890097AB
:1017600069F714C06D897E898F89988D0E94490020
:10177000DC01CB019C8B8B8B8B899C89988B8F8711
:101780008F8598890197F1F7988B8F87E091920068
:10179000F091930083818CA3E0919200F0919300EB
:1017A00084818BA3E0919200F091930085811AA22D
:1017B000882311F481E08AA38CA16BA14AA10E9425
:1017C000F9058E8D9AE0692F0E94250E892F61E020
:1017D0000E94330A80E090E0A0EFB1E48B879C8701
:1017E000AD87BE876B857C858D859E8520E030E04A
:1017F0004AEF54E40E941F02DC01CB018F839887DB
:10180000A987BA876F81788589859A8520E030E03D
:1018100040E85FE30E94790388232CF481E090E0A4
:101820009E838D833FC06F81788589859A8520E06E
:101830003FEF4FE757E40E94190318164CF56B85EC
:101840007C858D859E8520E030E040E251E40E9459
:101850001F02DC01CB01BC01CD010E944900DC016B
:10186000CB019E838D830FC088EC90E09C838B839B
:101870008B819C810197F1F79C838B838D819E8165
:1018800001979E838D838D819E81009769F714C097
:101890006F81788589859A850E944900DC01CB019A
:1018A0009E838D838D819E819A83898389819A818C
:1018B0000197F1F79A838983E0919200F091930068
:1018C000838189A3E0919200F0919300848188A3A1
:1018D000E0919200F091930085811F8E882311F48E
:1018E00081E08F8F89A168A14F8D0E94F9058D8DB0
:1018F000A4960FB6F894DEBF0FBECDBFCF91DF9197
:101900000895DF93CF9300D000D0CDB7DEB786E047
:101910008C838AE790E09B838A838A819B810097EE
:1019200019F486E08C8337C019820EC0EA81FB81EE
:1019300090818981981719F487E08C830AC088E028
:101940008C8389818F5F8983909175008981891744
:1019500068F38C818730F9F48AE08C83EA81FB811B
:1019600081E08383EA81FB818181EA81FB8192812D
:10197000692F41E00E94C207EA81FB818181EA81EF
:10198000FB812281EA81FB819381622F492F0E9492
:10199000F90589E08C838C810F900F900F900F9048
:1019A000CF91DF910895DF93CF9300D000D0CDB7D2
:1019B000DEB786E08C838AE790E09B838A838A8106
:1019C0009B81009719F486E08C8336C019820EC083
:1019D000EA81FB8190818981981719F487E08C83D3
:1019E0000AC088E08C8389818F5F8983909175001C
:1019F0008981891768F38C818730F1F489E08C83C1
:101A0000EA81FB811382EA81FB818181EA81FB818A
:101A10009281692F41E00E94C207EA81FB818181A6
:101A2000EA81FB812281EA81FB819381622F492F28
:101A30000E94F9058AE08C838C810F900F900F90A3
:101A40000F90CF91DF910895DF93CF9300D00F9245
:101A5000CDB7DEB786E08B838AE790E09A838983EF
:101A600089819A81009719F486E08B8311C0E981FE
:101A7000FA818381813021F40E94D30C8B8308C0CA
:101A8000E981FA818381882319F40E94810C8B8378
:101A90008B810F900F900F90CF91DF910895DF937E
:101AA000CF93CDB7DEB760970FB6F894DEBF0FBE09
:101AB000CDBF188A1F867AC08F850E94380B80E0C0
:101AC00090E8ABE3B5E48B879C87AD87BE876B85D9
:101AD0007C858D859E8520E030E04AEF54E40E94AD
:101AE0001F02DC01CB018F839887A987BA876F819A
:101AF000788589859A8520E030E040E85FE30E94A0
:101B0000790388232CF481E090E09E838D833FC08D
:101B10006F81788589859A8520E03FEF4FE757E40C
:101B20000E94190318164CF56B857C858D859E8562
:101B300020E030E040E251E40E941F02DC01CB01D2
:101B4000BC01CD010E944900DC01CB019E838D8345
:101B50000FC088EC90E09C838B838B819C810197E4
:101B6000F1F79C838B838D819E8101979E838D836A
:101B70008D819E81009769F714C06F817885898572
:101B80009A850E944900DC01CB019E838D838D8163
:101B90009E819A83898389819A810197F1F79A833B
:101BA00089838F8598890196988B8F878F859889EF
:101BB000843191050CF480CF7CCFDF93CF93CDB7E8
:101BC000DEB728970FB6F894DEBF0FBECDBF9C835B
:101BD0008B8382E090E09A83898311C08B819C8102
:101BE00029813A81B9010E94310E009719F41E82B1
:101BF0001D821CC089819A8101969A8389838B8179
:101C00009C819C012150304089819A812817390795
:101C10002CF729813A818B819C812817390729F477
:101C200081E090E09E838D8301C004C08D819E8100
:101C300098878F838F81988528960FB6F894DEBF9A
:101C40000FBECDBFCF91DF910895991B79E004C0FD
:101C5000991F961708F0961B881F7A95C9F78095EB
:101C6000089597FB092E07260AD077FD04D00CD0E3
:101C700006D000201AF4709561957F4F0895F6F70D
:101C8000909581959F4F0895AA1BBB1B51E107C0FA
:101C9000AA1FBB1FA617B70710F0A61BB70B881FFC
:101CA000991F5A95A9F780959095BC01CD0108958B
:101CB0002F923F924F925F926F927F928F929F925C
:101CC000AF92BF92CF92DF92EF92FF920F931F934A
:101CD000CF93DF93CDB7DEB7CA1BDB0B0FB6F894FB
:101CE000DEBF0FBECDBF09942A88398848885F843B
:101CF0006E847D848C849B84AA84B984C884DF80AC
:101D0000EE80FD800C811B81AA81B981CE0FD11D8F
:101D10000FB6F894DEBF0FBECDBFED010895F89465
:021D2000FFCFF3
:101D220000000000000000000000000100000100AF
:101D32000001010002020000000001010100C0F9DF
:101D4200A4B0999282F880903F065B4F666D7D0742
:021D52007F6FA1
:00000001FF
