:100000000C942A000C9447000C9447000C94470071
:100010000C9447000C9447000C9447000C94470044
:100020000C9447000C9447000C9447000C94470034
:100030000C9447000C9447000C9447000C94470024
:100040000C9447000C9447000C9447000C94470014
:100050000C94470011241FBECFE5D8E0DEBFCDBF12
:1000600010E0A0E6B0E0E0E7FCE002C005900D92F1
:10007000A438B107D9F710E0A4E8B0E001C01D92A0
:10008000A538B107E1F70E942D060C9436060C94B2
:100090000000DF93CF9300D000D00F92CDB7DEB732
:1000A0008A836B8381E089838A81882361F08A81D6
:1000B000813049F08A81823031F08A81833019F0B1
:1000C00081E0898333C019828A81282F30E03D8303
:1000D0002C838C819D8181309105D1F02C813D81D3
:1000E000223031052CF48C819D81009761F01EC077
:1000F0002C813D812230310581F08C819D818330BE
:10010000910581F013C0EBE3F0E08B8180830EC09A
:10011000E8E3F0E08B81808309C0E5E3F0E08B81C8
:10012000808304C0E2E3F0E08B81808389810F90BB
:100130000F900F900F900F90CF91DF910895DF9364
:10014000CF93CDB7DEB728970FB6F894DEBF0FBEBA
:10015000CDBF8A836B834C8381E089838A81882326
:1001600061F08A81813049F08A81823031F08A8160
:10017000833019F081E0898332C18B81883018F097
:1001800083E089832CC182E089838C81813009F0EE
:1001900092C08A81282F30E038872F836F8178853D
:1001A0006130710569F18F8198858230910534F451
:1001B0002F8138852115310569F064C06F817885FC
:1001C0006230710599F18F8198858330910509F42A
:1001D00043C058C0ABE3B0E0EBE3F0E08081482FD0
:1001E0008C81282F30E08B81882F90E0B90102C0EC
:1001F000660F771F8A95E2F7CB01842B8C93EFC0B3
:10020000A8E3B0E0E8E3F0E08081482F8C81282F5C
:1002100030E08B81882F90E0B90102C0660F771F14
:100220008A95E2F7CB01842B8C93D9C0A5E3B0E08B
:10023000E5E3F0E08081482F8C81282F30E08B812E
:10024000882F90E0B90102C0660F771F8A95E2F708
:10025000CB01842B8C93C3C0A2E3B0E0E2E3F0E0D7
:100260008081482F8C81282F30E08B81882F90E06F
:10027000B90102C0660F771F8A95E2F7CB01842B84
:100280008C93ADC0ABE3B0E0EBE3F0E080818C9306
:10029000ABE3B0E0EBE3F0E080818C93ABE3B0E064
:1002A000EBE3F0E080818C93A2E3B0E0E2E3F0E0E6
:1002B00080818C9394C08C81882309F08EC08A81C0
:1002C000282F30E03E832D836D817E816130710562
:1002D00061F18D819E818230910534F42D813E81C2
:1002E0002115310569F060C06D817E816230710534
:1002F00089F18D819E818330910509F440C054C0FD
:10030000ABE3B0E0EBE3F0E08081482F8B81282F56
:1003100030E081E090E0022E02C0880F991F0A941D
:10032000E2F7809584238C935AC0A8E3B0E0E8E319
:10033000F0E08081482F8B81282F30E081E090E031
:10034000022E02C0880F991F0A94E2F78095842339
:100350008C9345C0A5E3B0E0E5E3F0E08081482F51
:100360008B81282F30E081E090E0022E02C0880FC0
:10037000991F0A94E2F7809584238C9330C0A2E3FE
:10038000B0E0E2E3F0E08081482F8B81282F30E05D
:1003900081E090E0022E02C0880F991F0A94E2F7D4
:1003A000809584238C931BC0ABE3B0E0EBE3F0E0DB
:1003B00080818C93ABE3B0E0EBE3F0E080818C9341
:1003C000ABE3B0E0EBE3F0E080818C93A2E3B0E03C
:1003D000E2E3F0E080818C9302C084E0898389812C
:1003E00028960FB6F894DEBF0FBECDBFCF91DF9138
:1003F0000895DF93CF9300D000D00F92CDB7DEB732
:100400008A836B8381E089838A81882361F08A8172
:10041000813049F08A81823031F08A81833019F04D
:1004200081E089834CC019828A81282F30E03D8386
:100430002C838C819D8181309105D1F02C813D816F
:10044000223031052CF48C819D81009761F01FC012
:100450002C813D812230310581F08C819D8183305A
:10046000910581F014C0EAE3F0E08B81808327C01E
:10047000E7E3F0E08B81808322C0E4E3F0E08B814E
:1004800080831DC0E1E3F0E08B81808318C0AAE384
:10049000B0E0EAE3F0E080818C93A7E3B0E0E7E32B
:1004A000F0E080818C93A4E3B0E0E4E3F0E08081AD
:1004B0008C93A1E3B0E0E1E3F0E080818C9389814B
:1004C0000F900F900F900F900F90CF91DF910895A4
:1004D000DF93CF93CDB7DEB728970FB6F894DEBF82
:1004E0000FBECDBF8A836B834C8381E089838A8171
:1004F000882361F08A81813049F08A81823031F02D
:100500008A81833019F081E089833BC119828B8114
:10051000883018F083E0898334C182E089838C813C
:10052000813009F092C08A81282F30E038872F83EC
:100530006F8178856130710569F18F81988582308E
:10054000910534F42F8138852115310569F064C097
:100550006F8178856230710599F18F81988583303C
:10056000910509F443C058C0AAE3B0E0EAE3F0E023
:100570008081482F8C81282F30E08B81882F90E05C
:10058000B90102C0660F771F8A95E2F7CB01842B71
:100590008C93F7C0A7E3B0E0E7E3F0E08081482F59
:1005A0008C81282F30E08B81882F90E0B90102C028
:1005B000660F771F8A95E2F7CB01842B8C93E1C0FD
:1005C000A4E3B0E0E4E3F0E08081482F8C81282FA1
:1005D00030E08B81882F90E0B90102C0660F771F51
:1005E0008A95E2F7CB01842B8C93CBC0A1E3B0E0DA
:1005F000E1E3F0E08081482F8C81282F30E08B816F
:10060000882F90E0B90102C0660F771F8A95E2F744
:10061000CB01842B8C93B5C0AAE3B0E0EAE3F0E011
:1006200080818C93A7E3B0E0E7E3F0E080818C93D6
:10063000A4E3B0E0E4E3F0E080818C93A1E3B0E0D8
:10064000E1E3F0E080818C939CC08C81882309F0E9
:1006500096C08A81282F30E03E832D836D817E8174
:100660006130710571F18D819E818230910534F484
:100670002D813E812115310569F068C06D817E8133
:1006800062307105A9F18D819E818330910509F455
:1006900046C05CC0AAE3B0E0EAE3F0E08081482F06
:1006A0008C81282F30E08B81882F90E0B90102C027
:1006B000660F771F8A95E2F7CB01809584238C9390
:1006C00060C0A7E3B0E0E7E3F0E08081482F8C81D1
:1006D000282F30E08B81882F90E0B90102C0660F8F
:1006E000771F8A95E2F7CB01809584238C9349C0CC
:1006F000A4E3B0E0E4E3F0E08081482F8C81282F70
:1007000030E08B81882F90E0B90102C0660F771F1F
:100710008A95E2F7CB01809584238C9332C0A1E3C4
:10072000B0E0E1E3F0E08081482F8C81282F30E0B9
:100730008B81882F90E0B90102C0660F771F8A95E0
:10074000E2F7CB01809584238C931BC0AAE3B0E031
:10075000EAE3F0E080818C93A7E3B0E0E7E3F0E028
:1007600080818C93A4E3B0E0E4E3F0E080818C939B
:10077000A1E3B0E0E1E3F0E080818C9302C084E08B
:100780008983898128960FB6F894DEBF0FBECDBF4E
:10079000CF91DF910895DF93CF9300D000D000D0A8
:1007A000CDB7DEB78A837C836B8381E089838A81BE
:1007B000882361F08A81813049F08A81823031F06A
:1007C0008A81833019F081E0898342C082E0898385
:1007D0008A81282F30E03E832D838D819E81813058
:1007E0009105E1F02D813E81223031052CF48D817F
:1007F0009E81009761F026C02D813E812230310517
:10080000A1F08D819E8183309105B1F01BC0E9E399
:10081000F0E08081EB81FC81808314C0E6E3F0E0AE
:100820008081EB81FC8180830DC0E3E3F0E0808177
:10083000EB81FC81808306C0E0E3F0E08081EB8106
:10084000FC8180838B819C81009711F486E08983F1
:10085000898126960FB6F894DEBF0FBECDBFCF912B
:10086000DF910895DF93CF93CDB7DEB727970FB60B
:10087000F894DEBF0FBECDBF8A836B835D834C834C
:1008800081E089838A81882361F08A81813049F0FF
:100890008A81823031F08A81833019F081E0898346
:1008A0007EC08B81883018F083E0898378C082E035
:1008B00089838A81282F30E03F832E834E815F8198
:1008C0004130510559F18E819F818230910534F478
:1008D0002E813F812115310569F05BC04E815F811A
:1008E0004230510579F18E819F818330910509F461
:1008F0003DC04FC0E9E3F0E08081282F30E08B81DC
:10090000882F90E0A90102C0559547958A95E2F796
:10091000CA018170EC81FD8180833BC0E6E3F0E099
:100920008081282F30E08B81882F90E0A90102C0C0
:10093000559547958A95E2F7CA018170EC81FD8152
:10094000808327C0E3E3F0E08081282F30E08B81B3
:10095000882F90E0A90102C0559547958A95E2F746
:10096000CA018170EC81FD81808313C0E0E3F0E077
:100970008081282F30E08B81882F90E0A90102C070
:10098000559547958A95E2F7CA018170EC81FD8102
:1009900080838C819D81009711F486E08983898111
:1009A00027960FB6F894DEBF0FBECDBFCF91DF9173
:1009B0000895DF93CF9300D000D00F92CDB7DEB76C
:1009C0008D8381E08C8383E690E09B838A838A8198
:1009D0009B81009719F486E08C8368C08D818A30F2
:1009E00018F08BE08C8362C0EA81FB8181818823CF
:1009F00091F0EA81FB818181813069F0EA81FB819C
:100A00008181823041F0EA81FB818181833019F05C
:100A100081E08C834BC019820EC0EA81FB819081FA
:100A20008981981719F48CE08C830AC08DE08C833F
:100A300089818F5F8983909166008981891768F326
:100A40008C818C3099F5EA81FB8182818130A9F417
:100A5000EA81FB8181816FEF0E94F901EA81FB81CC
:100A600021818D81882F90E0FC01E059FF4F90811A
:100A7000822F692F0E94490019C0EA81FB8182817F
:100A80008823A1F4EA81FB8181816FEF0E94F90143
:100A9000EA81FB8121818D81882F90E0FC01E6585D
:100AA000FF4F9081822F692F0E9449008C810F9007
:100AB0000F900F900F900F90CF91DF910895DF93DB
:100AC000CF9300D000D0CDB7DEB786E08C838CE624
:100AD00090E09B838A838A819B81009719F486E04A
:100AE0008C8337C019820EC0EA81FB819081898195
:100AF000981719F487E08C830AC088E08C83898179
:100B00008F5F8983909167008981891768F38C8151
:100B10008730F9F48AE08C83EA81FB8181E083836A
:100B2000EA81FB818181EA81FB819281692F41E029
:100B30000E946802EA81FB818181EA81FB81228136
:100B4000EA81FB819381622F492F0E949F0089E0F7
:100B50008C838C810F900F900F900F90CF91DF912D
:100B60000895DF93CF9300D000D0CDB7DEB786E0F5
:100B70008C838CE690E09B838A838A819B8100979B
:100B800019F486E08C8336C019820EC0EA81FB819D
:100B900090818981981719F487E08C830AC088E0D6
:100BA0008C8389818F5F8983909167008981891700
:100BB00068F38C818730F1F489E08C83EA81FB81D2
:100BC0001382EA81FB818181EA81FB819281692F15
:100BD00041E00E946802EA81FB818181EA81FB8118
:100BE0002281EA81FB819381622F492F0E949F001D
:100BF0008AE08C838C810F900F900F900F90CF9193
:100C0000DF910895DF93CF9300D00F92CDB7DEB779
:100C100086E08B838CE690E09A83898389819A8130
:100C2000009719F486E08B8311C0E981FA818381F2
:100C3000813021F40E94B1058B8308C0E981FA81DB
:100C40008381882319F40E945F058B838B810F9029
:100C50000F900F90CF91DF910895DF93CF93CDB791
:100C6000DEB783E090E00E94D904FBCFF894FFCF79
:100C7000000000010101020200000000010101006A
:100C8000C0F9A4B0999282F880903F065B4F666DE0
:040C90007D077F6FEE
:00000001FF
